{
  "_format": "hh-sol-artifact-1",
  "contractName": "BondedPION",
  "sourceName": "contracts/BondedPION.sol",
  "abi": [
    {
      "anonymous": false,
      "inputs": [
        {
          "indexed": true,
          "internalType": "address",
          "name": "owner",
          "type": "address"
        },
        {
          "indexed": true,
          "internalType": "address",
          "name": "approved",
          "type": "address"
        },
        {
          "indexed": true,
          "internalType": "uint256",
          "name": "tokenId",
          "type": "uint256"
        }
      ],
      "name": "Approval",
      "type": "event"
    },
    {
      "anonymous": false,
      "inputs": [
        {
          "indexed": true,
          "internalType": "address",
          "name": "owner",
          "type": "address"
        },
        {
          "indexed": true,
          "internalType": "address",
          "name": "operator",
          "type": "address"
        },
        {
          "indexed": false,
          "internalType": "bool",
          "name": "approved",
          "type": "bool"
        }
      ],
      "name": "ApprovalForAll",
      "type": "event"
    },
    {
      "anonymous": false,
      "inputs": [
        {
          "indexed": false,
          "internalType": "uint8",
          "name": "version",
          "type": "uint8"
        }
      ],
      "name": "Initialized",
      "type": "event"
    },
    {
      "anonymous": false,
      "inputs": [
        {
          "indexed": true,
          "internalType": "address",
          "name": "from",
          "type": "address"
        },
        {
          "indexed": true,
          "internalType": "uint256",
          "name": "tokenId",
          "type": "uint256"
        },
        {
          "indexed": false,
          "internalType": "address[]",
          "name": "tokens",
          "type": "address[]"
        },
        {
          "indexed": false,
          "internalType": "uint256[]",
          "name": "amounts",
          "type": "uint256[]"
        }
      ],
      "name": "Locked",
      "type": "event"
    },
    {
      "anonymous": false,
      "inputs": [
        {
          "indexed": true,
          "internalType": "address",
          "name": "from",
          "type": "address"
        },
        {
          "indexed": true,
          "internalType": "uint256",
          "name": "tokenIdA",
          "type": "uint256"
        },
        {
          "indexed": true,
          "internalType": "uint256",
          "name": "tokenIdB",
          "type": "uint256"
        }
      ],
      "name": "Merged",
      "type": "event"
    },
    {
      "anonymous": false,
      "inputs": [
        {
          "indexed": true,
          "internalType": "address",
          "name": "previousOwner",
          "type": "address"
        },
        {
          "indexed": true,
          "internalType": "address",
          "name": "newOwner",
          "type": "address"
        }
      ],
      "name": "OwnershipTransferred",
      "type": "event"
    },
    {
      "anonymous": false,
      "inputs": [
        {
          "indexed": false,
          "internalType": "address",
          "name": "account",
          "type": "address"
        }
      ],
      "name": "Paused",
      "type": "event"
    },
    {
      "anonymous": false,
      "inputs": [
        {
          "indexed": false,
          "internalType": "bool",
          "name": "publicTransferStatus",
          "type": "bool"
        }
      ],
      "name": "PublicTransferStatusUpdated",
      "type": "event"
    },
    {
      "anonymous": false,
      "inputs": [
        {
          "indexed": true,
          "internalType": "bytes32",
          "name": "role",
          "type": "bytes32"
        },
        {
          "indexed": true,
          "internalType": "bytes32",
          "name": "previousAdminRole",
          "type": "bytes32"
        },
        {
          "indexed": true,
          "internalType": "bytes32",
          "name": "newAdminRole",
          "type": "bytes32"
        }
      ],
      "name": "RoleAdminChanged",
      "type": "event"
    },
    {
      "anonymous": false,
      "inputs": [
        {
          "indexed": true,
          "internalType": "bytes32",
          "name": "role",
          "type": "bytes32"
        },
        {
          "indexed": true,
          "internalType": "address",
          "name": "account",
          "type": "address"
        },
        {
          "indexed": true,
          "internalType": "address",
          "name": "sender",
          "type": "address"
        }
      ],
      "name": "RoleGranted",
      "type": "event"
    },
    {
      "anonymous": false,
      "inputs": [
        {
          "indexed": true,
          "internalType": "bytes32",
          "name": "role",
          "type": "bytes32"
        },
        {
          "indexed": true,
          "internalType": "address",
          "name": "account",
          "type": "address"
        },
        {
          "indexed": true,
          "internalType": "address",
          "name": "sender",
          "type": "address"
        }
      ],
      "name": "RoleRevoked",
      "type": "event"
    },
    {
      "anonymous": false,
      "inputs": [
        {
          "indexed": true,
          "internalType": "address",
          "name": "from",
          "type": "address"
        },
        {
          "indexed": true,
          "internalType": "uint256",
          "name": "tokenId",
          "type": "uint256"
        },
        {
          "indexed": true,
          "internalType": "uint256",
          "name": "newTokenId",
          "type": "uint256"
        },
        {
          "indexed": false,
          "internalType": "address[]",
          "name": "tokens",
          "type": "address[]"
        },
        {
          "indexed": false,
          "internalType": "uint256[]",
          "name": "amounts",
          "type": "uint256[]"
        }
      ],
      "name": "Splited",
      "type": "event"
    },
    {
      "anonymous": false,
      "inputs": [
        {
          "indexed": true,
          "internalType": "address",
          "name": "from",
          "type": "address"
        },
        {
          "indexed": true,
          "internalType": "address",
          "name": "to",
          "type": "address"
        },
        {
          "indexed": true,
          "internalType": "uint256",
          "name": "tokenId",
          "type": "uint256"
        }
      ],
      "name": "Transfer",
      "type": "event"
    },
    {
      "anonymous": false,
      "inputs": [
        {
          "indexed": false,
          "internalType": "address",
          "name": "treasury",
          "type": "address"
        }
      ],
      "name": "TreasuryUpdated",
      "type": "event"
    },
    {
      "anonymous": false,
      "inputs": [
        {
          "indexed": false,
          "internalType": "address",
          "name": "account",
          "type": "address"
        }
      ],
      "name": "Unpaused",
      "type": "event"
    },
    {
      "anonymous": false,
      "inputs": [
        {
          "indexed": false,
          "internalType": "address[]",
          "name": "tokens",
          "type": "address[]"
        }
      ],
      "name": "WhitelistTokensUpdated",
      "type": "event"
    },
    {
      "inputs": [],
      "name": "BOOSTER_ROLE",
      "outputs": [
        {
          "internalType": "bytes32",
          "name": "",
          "type": "bytes32"
        }
      ],
      "stateMutability": "view",
      "type": "function"
    },
    {
      "inputs": [],
      "name": "DEFAULT_ADMIN_ROLE",
      "outputs": [
        {
          "internalType": "bytes32",
          "name": "",
          "type": "bytes32"
        }
      ],
      "stateMutability": "view",
      "type": "function"
    },
    {
      "inputs": [],
      "name": "TRANSFERABLE_ADDRESS_ROLE",
      "outputs": [
        {
          "internalType": "bytes32",
          "name": "",
          "type": "bytes32"
        }
      ],
      "stateMutability": "view",
      "type": "function"
    },
    {
      "inputs": [
        {
          "internalType": "uint256",
          "name": "tokenId",
          "type": "uint256"
        },
        {
          "internalType": "uint256",
          "name": "amount",
          "type": "uint256"
        }
      ],
      "name": "addBoostedBalance",
      "outputs": [],
      "stateMutability": "nonpayable",
      "type": "function"
    },
    {
      "inputs": [
        {
          "internalType": "address",
          "name": "to",
          "type": "address"
        },
        {
          "internalType": "uint256",
          "name": "tokenId",
          "type": "uint256"
        }
      ],
      "name": "approve",
      "outputs": [],
      "stateMutability": "nonpayable",
      "type": "function"
    },
    {
      "inputs": [
        {
          "internalType": "address",
          "name": "owner",
          "type": "address"
        }
      ],
      "name": "balanceOf",
      "outputs": [
        {
          "internalType": "uint256",
          "name": "",
          "type": "uint256"
        }
      ],
      "stateMutability": "view",
      "type": "function"
    },
    {
      "inputs": [],
      "name": "baseToken",
      "outputs": [
        {
          "internalType": "address",
          "name": "",
          "type": "address"
        }
      ],
      "stateMutability": "view",
      "type": "function"
    },
    {
      "inputs": [
        {
          "internalType": "uint256",
          "name": "",
          "type": "uint256"
        }
      ],
      "name": "boostedBalance",
      "outputs": [
        {
          "internalType": "uint256",
          "name": "",
          "type": "uint256"
        }
      ],
      "stateMutability": "view",
      "type": "function"
    },
    {
      "inputs": [
        {
          "internalType": "uint256",
          "name": "tokenId",
          "type": "uint256"
        }
      ],
      "name": "burn",
      "outputs": [],
      "stateMutability": "nonpayable",
      "type": "function"
    },
    {
      "inputs": [
        {
          "internalType": "uint256",
          "name": "tokenId",
          "type": "uint256"
        }
      ],
      "name": "getApproved",
      "outputs": [
        {
          "internalType": "address",
          "name": "",
          "type": "address"
        }
      ],
      "stateMutability": "view",
      "type": "function"
    },
    {
      "inputs": [
        {
          "internalType": "uint256",
          "name": "tokenId",
          "type": "uint256"
        },
        {
          "internalType": "address[]",
          "name": "tokens",
          "type": "address[]"
        }
      ],
      "name": "getLockedOf",
      "outputs": [
        {
          "internalType": "uint256[]",
          "name": "amounts",
          "type": "uint256[]"
        }
      ],
      "stateMutability": "view",
      "type": "function"
    },
    {
      "inputs": [
        {
          "internalType": "bytes32",
          "name": "role",
          "type": "bytes32"
        }
      ],
      "name": "getRoleAdmin",
      "outputs": [
        {
          "internalType": "bytes32",
          "name": "",
          "type": "bytes32"
        }
      ],
      "stateMutability": "view",
      "type": "function"
    },
    {
      "inputs": [
        {
          "internalType": "bytes32",
          "name": "role",
          "type": "bytes32"
        },
        {
          "internalType": "address",
          "name": "account",
          "type": "address"
        }
      ],
      "name": "grantRole",
      "outputs": [],
      "stateMutability": "nonpayable",
      "type": "function"
    },
    {
      "inputs": [
        {
          "internalType": "bytes32",
          "name": "role",
          "type": "bytes32"
        },
        {
          "internalType": "address",
          "name": "account",
          "type": "address"
        }
      ],
      "name": "hasRole",
      "outputs": [
        {
          "internalType": "bool",
          "name": "",
          "type": "bool"
        }
      ],
      "stateMutability": "view",
      "type": "function"
    },
    {
      "inputs": [
        {
          "internalType": "address",
          "name": "_token",
          "type": "address"
        },
        {
          "internalType": "address",
          "name": "_treasury",
          "type": "address"
        },
        {
          "internalType": "uint256",
          "name": "_tokenIdCounter",
          "type": "uint256"
        },
        {
          "internalType": "uint256",
          "name": "_totalLocked",
          "type": "uint256"
        }
      ],
      "name": "initialize",
      "outputs": [],
      "stateMutability": "nonpayable",
      "type": "function"
    },
    {
      "inputs": [
        {
          "internalType": "address",
          "name": "owner",
          "type": "address"
        },
        {
          "internalType": "address",
          "name": "operator",
          "type": "address"
        }
      ],
      "name": "isApprovedForAll",
      "outputs": [
        {
          "internalType": "bool",
          "name": "",
          "type": "bool"
        }
      ],
      "stateMutability": "view",
      "type": "function"
    },
    {
      "inputs": [],
      "name": "isPublicTransferEnabled",
      "outputs": [
        {
          "internalType": "bool",
          "name": "",
          "type": "bool"
        }
      ],
      "stateMutability": "view",
      "type": "function"
    },
    {
      "inputs": [
        {
          "internalType": "address",
          "name": "",
          "type": "address"
        }
      ],
      "name": "isTokenWhitelisted",
      "outputs": [
        {
          "internalType": "bool",
          "name": "",
          "type": "bool"
        }
      ],
      "stateMutability": "view",
      "type": "function"
    },
    {
      "inputs": [
        {
          "internalType": "uint256",
          "name": "tokenId",
          "type": "uint256"
        },
        {
          "internalType": "address[]",
          "name": "tokens",
          "type": "address[]"
        },
        {
          "internalType": "uint256[]",
          "name": "amounts",
          "type": "uint256[]"
        }
      ],
      "name": "lock",
      "outputs": [],
      "stateMutability": "nonpayable",
      "type": "function"
    },
    {
      "inputs": [
        {
          "internalType": "uint256",
          "name": "",
          "type": "uint256"
        },
        {
          "internalType": "address",
          "name": "",
          "type": "address"
        }
      ],
      "name": "lockedOf",
      "outputs": [
        {
          "internalType": "uint256",
          "name": "",
          "type": "uint256"
        }
      ],
      "stateMutability": "view",
      "type": "function"
    },
    {
      "inputs": [
        {
          "internalType": "uint256",
          "name": "tokenIdA",
          "type": "uint256"
        },
        {
          "internalType": "uint256",
          "name": "tokenIdB",
          "type": "uint256"
        }
      ],
      "name": "merge",
      "outputs": [],
      "stateMutability": "nonpayable",
      "type": "function"
    },
    {
      "inputs": [
        {
          "internalType": "uint256[]",
          "name": "_tokenId",
          "type": "uint256[]"
        },
        {
          "internalType": "address[]",
          "name": "_owner",
          "type": "address[]"
        },
        {
          "internalType": "uint256[]",
          "name": "_balance",
          "type": "uint256[]"
        },
        {
          "internalType": "uint256[]",
          "name": "_mintedAt",
          "type": "uint256[]"
        }
      ],
      "name": "migrate",
      "outputs": [],
      "stateMutability": "nonpayable",
      "type": "function"
    },
    {
      "inputs": [
        {
          "internalType": "address",
          "name": "to",
          "type": "address"
        }
      ],
      "name": "mint",
      "outputs": [
        {
          "internalType": "uint256",
          "name": "",
          "type": "uint256"
        }
      ],
      "stateMutability": "nonpayable",
      "type": "function"
    },
    {
      "inputs": [
        {
          "internalType": "address[]",
          "name": "tokens",
          "type": "address[]"
        },
        {
          "internalType": "uint256[]",
          "name": "amounts",
          "type": "uint256[]"
        },
        {
          "internalType": "address",
          "name": "to",
          "type": "address"
        }
      ],
      "name": "mintAndLock",
      "outputs": [
        {
          "internalType": "uint256",
          "name": "tokenId",
          "type": "uint256"
        }
      ],
      "stateMutability": "nonpayable",
      "type": "function"
    },
    {
      "inputs": [
        {
          "internalType": "uint256",
          "name": "",
          "type": "uint256"
        }
      ],
      "name": "mintedAt",
      "outputs": [
        {
          "internalType": "uint256",
          "name": "",
          "type": "uint256"
        }
      ],
      "stateMutability": "view",
      "type": "function"
    },
    {
      "inputs": [],
      "name": "name",
      "outputs": [
        {
          "internalType": "string",
          "name": "",
          "type": "string"
        }
      ],
      "stateMutability": "view",
      "type": "function"
    },
    {
      "inputs": [],
      "name": "owner",
      "outputs": [
        {
          "internalType": "address",
          "name": "",
          "type": "address"
        }
      ],
      "stateMutability": "view",
      "type": "function"
    },
    {
      "inputs": [
        {
          "internalType": "uint256",
          "name": "tokenId",
          "type": "uint256"
        }
      ],
      "name": "ownerOf",
      "outputs": [
        {
          "internalType": "address",
          "name": "",
          "type": "address"
        }
      ],
      "stateMutability": "view",
      "type": "function"
    },
    {
      "inputs": [],
      "name": "pause",
      "outputs": [],
      "stateMutability": "nonpayable",
      "type": "function"
    },
    {
      "inputs": [],
      "name": "paused",
      "outputs": [
        {
          "internalType": "bool",
          "name": "",
          "type": "bool"
        }
      ],
      "stateMutability": "view",
      "type": "function"
    },
    {
      "inputs": [],
      "name": "renounceOwnership",
      "outputs": [],
      "stateMutability": "nonpayable",
      "type": "function"
    },
    {
      "inputs": [
        {
          "internalType": "bytes32",
          "name": "role",
          "type": "bytes32"
        },
        {
          "internalType": "address",
          "name": "account",
          "type": "address"
        }
      ],
      "name": "renounceRole",
      "outputs": [],
      "stateMutability": "nonpayable",
      "type": "function"
    },
    {
      "inputs": [
        {
          "internalType": "bytes32",
          "name": "role",
          "type": "bytes32"
        },
        {
          "internalType": "address",
          "name": "account",
          "type": "address"
        }
      ],
      "name": "revokeRole",
      "outputs": [],
      "stateMutability": "nonpayable",
      "type": "function"
    },
    {
      "inputs": [
        {
          "internalType": "address",
          "name": "from",
          "type": "address"
        },
        {
          "internalType": "address",
          "name": "to",
          "type": "address"
        },
        {
          "internalType": "uint256",
          "name": "tokenId",
          "type": "uint256"
        }
      ],
      "name": "safeTransferFrom",
      "outputs": [],
      "stateMutability": "nonpayable",
      "type": "function"
    },
    {
      "inputs": [
        {
          "internalType": "address",
          "name": "from",
          "type": "address"
        },
        {
          "internalType": "address",
          "name": "to",
          "type": "address"
        },
        {
          "internalType": "uint256",
          "name": "tokenId",
          "type": "uint256"
        },
        {
          "internalType": "bytes",
          "name": "data",
          "type": "bytes"
        }
      ],
      "name": "safeTransferFrom",
      "outputs": [],
      "stateMutability": "nonpayable",
      "type": "function"
    },
    {
      "inputs": [
        {
          "internalType": "address",
          "name": "operator",
          "type": "address"
        },
        {
          "internalType": "bool",
          "name": "approved",
          "type": "bool"
        }
      ],
      "name": "setApprovalForAll",
      "outputs": [],
      "stateMutability": "nonpayable",
      "type": "function"
    },
    {
      "inputs": [
        {
          "internalType": "bool",
          "name": "_isPublicTransferEnabled",
          "type": "bool"
        }
      ],
      "name": "setPublicTransfer",
      "outputs": [],
      "stateMutability": "nonpayable",
      "type": "function"
    },
    {
      "inputs": [
        {
          "internalType": "address",
          "name": "_treasury",
          "type": "address"
        }
      ],
      "name": "setTreasury",
      "outputs": [],
      "stateMutability": "nonpayable",
      "type": "function"
    },
    {
      "inputs": [
        {
          "internalType": "bytes4",
          "name": "interfaceId",
          "type": "bytes4"
        }
      ],
      "name": "supportsInterface",
      "outputs": [
        {
          "internalType": "bool",
          "name": "",
          "type": "bool"
        }
      ],
      "stateMutability": "view",
      "type": "function"
    },
    {
      "inputs": [],
      "name": "symbol",
      "outputs": [
        {
          "internalType": "string",
          "name": "",
          "type": "string"
        }
      ],
      "stateMutability": "view",
      "type": "function"
    },
    {
      "inputs": [],
      "name": "tokenIdCounter",
      "outputs": [
        {
          "internalType": "uint256",
          "name": "",
          "type": "uint256"
        }
      ],
      "stateMutability": "view",
      "type": "function"
    },
    {
      "inputs": [
        {
          "internalType": "uint256",
          "name": "tokenId",
          "type": "uint256"
        }
      ],
      "name": "tokenURI",
      "outputs": [
        {
          "internalType": "string",
          "name": "",
          "type": "string"
        }
      ],
      "stateMutability": "view",
      "type": "function"
    },
    {
      "inputs": [
        {
          "internalType": "uint256",
          "name": "",
          "type": "uint256"
        }
      ],
      "name": "tokensWhitelist",
      "outputs": [
        {
          "internalType": "address",
          "name": "",
          "type": "address"
        }
      ],
      "stateMutability": "view",
      "type": "function"
    },
    {
      "inputs": [
        {
          "internalType": "address",
          "name": "",
          "type": "address"
        }
      ],
      "name": "totalLocked",
      "outputs": [
        {
          "internalType": "uint256",
          "name": "",
          "type": "uint256"
        }
      ],
      "stateMutability": "view",
      "type": "function"
    },
    {
      "inputs": [
        {
          "internalType": "address",
          "name": "from",
          "type": "address"
        },
        {
          "internalType": "address",
          "name": "to",
          "type": "address"
        },
        {
          "internalType": "uint256",
          "name": "tokenId",
          "type": "uint256"
        }
      ],
      "name": "transferFrom",
      "outputs": [],
      "stateMutability": "nonpayable",
      "type": "function"
    },
    {
      "inputs": [
        {
          "internalType": "address",
          "name": "newOwner",
          "type": "address"
        }
      ],
      "name": "transferOwnership",
      "outputs": [],
      "stateMutability": "nonpayable",
      "type": "function"
    },
    {
      "inputs": [],
      "name": "treasury",
      "outputs": [
        {
          "internalType": "address",
          "name": "",
          "type": "address"
        }
      ],
      "stateMutability": "view",
      "type": "function"
    },
    {
      "inputs": [],
      "name": "unpause",
      "outputs": [],
      "stateMutability": "nonpayable",
      "type": "function"
    },
    {
      "inputs": [
        {
          "internalType": "address[]",
          "name": "tokens",
          "type": "address[]"
        }
      ],
      "name": "whitelistTokens",
      "outputs": [],
      "stateMutability": "nonpayable",
      "type": "function"
    }
  ],
  "bytecode": "0x60808060405234620000c6576000549060ff8260081c1662000074575060ff8082160362000038575b604051613f209081620000cc8239f35b60ff90811916176000557f7f26b83ff96e1f2b6a682f133852f6798a09c465da95921460cefb3847402498602060405160ff8152a13862000028565b62461bcd60e51b815260206004820152602760248201527f496e697469616c697a61626c653a20636f6e747261637420697320696e697469604482015266616c697a696e6760c81b6064820152608490fd5b600080fdfe608080604052600436101561001357600080fd5b60003560e01c90816301ffc9a714612aa35750806306fdde0314612a0f578063081812fc146129f1578063095ea7b3146128765780630f8fcdf91461284d57806323b872dd14612829578063248a9ca3146127fa5780632f2ff15d1461274757806336568abe146126b55780633a5eaa91146126885780633b48d1de146126615780633f4ba83a146125cd57806342842e0e1461259a57806342966c681461248957806346df74ef1461222c5780634cb1e9e3146120ff5780635c975abb146120dc57806361d027b3146120b25780636352211e146120825780636a6278421461205c57806370a0823114611fc5578063715018a614611f685780638456cb5914611f0e5780638da5cb5b14611ee55780638f05183f1461197057806391d148541461192357806395d89b411461185357806397a7473b1461178957806398bdf6f51461176a5780639d25c9b3146115b0578063a217fddf14611594578063a22cb465146114c1578063b0a41b3e14611478578063b5af090f14611438578063b758ba88146113fd578063b88d4fde14611350578063c55dae6314611326578063c87b56dd146112b5578063cd3978d014611272578063d1c2babb14611077578063d547741f14611038578063d8fb933714610ffd578063e002804514610ae2578063e985e9c514610a8b578063eb990c59146103dc578063ec5b8eb91461036f578063f0f44260146102fb578063f1b0aa15146102ce5763f2fde38b1461023a57600080fd5b346102c95760203660031901126102c957610253612b70565b61025b61304a565b6001600160a01b0381161561027557610273906130a2565b005b60405162461bcd60e51b815260206004820152602660248201527f4f776e61626c653a206e6577206f776e657220697320746865207a65726f206160448201526564647265737360d01b6064820152608490fd5b600080fd5b346102c95760203660031901126102c9576004356000526101666020526020604060002054604051908152f35b346102c95760203660031901126102c9577f7dae230f18360d76a040c81f050aa14eb9d6dc7901b20fc5d855e2a20fe814d16020610337612b70565b61033f61304a565b6001600160a01b0316610353811515613b2c565b61016180546001600160a01b03191682179055604051908152a1005b346102c95760203660031901126102c9576004358015158091036102c95760207f35611a50d841e71a83c943f9e2954254b034cfc7f0f75d2809f02ead81ba15ae916103b961304a565b610161805460ff60a01b191660a083901b60ff60a01b16179055604051908152a1005b346102c95760803660031901126102c9576103f5612b70565b6103fd612b86565b6000549160ff8360081c161592838094610a7e575b8015610a67575b61042290613821565b60ff19811660011760005583610a55575b506040519061044182612c30565b600f82526e109bdb99195908141253d388139195608a1b602083015260405161046981612c30565b60078152663137b72824a7a760c91b60208201526000549260ff8460081c161593848095610a48575b8015610a31575b6104a290613821565b60ff19811660011760005584610a1f575b506104ce60ff60005460081c166104c981613baa565b613baa565b8051906001600160401b0382116109125781906104ec60fb5461315d565b601f81116109ab575b50602090601f831160011461093357600092610928575b50508160011b916000199060031b1c19161760fb555b8051906001600160401b03821161091257819061054060fc5461315d565b601f811161089b575b50602090601f83116001146108275760009261081c575b50508160011b916000199060031b1c19161760fc555b6105b960ff60005460081c1661058b81613baa565b61059481613baa565b60ff19603354166033556105a781613baa565b6105b081613baa565b6104c981613baa565b6105c2336130a2565b6001600160a01b039081169283151580610811575b6105e090613b2c565b6001600160601b0360a01b906101609185818454161783558361016192169082541617905561060e84613b67565b5416600090815261016360209081526040808320805460ff191660011790553383527f683723e34a772b6e4f2c919bba7fa32ed8ea11a8325f54da7db716e9d9dd98c790915290205460ff16156107ad575b600080527ff5194f580d3eac50d58846e4b10f1e85f26fc764de10a71d78de19830da269db6020527ed4442c87206803b672b601bed5ab5570554eb4c4ddac9f886acb6d296a223654600080516020613e8b8339815191529060ff161561075a575b5061071f575b60443561015f556000526101676020526064356040600020556106e757005b61ff0019600054166000557f7f26b83ff96e1f2b6a682f133852f6798a09c465da95921460cefb3847402498602060405160018152a1005b61ff0019600054166000557f7f26b83ff96e1f2b6a682f133852f6798a09c465da95921460cefb3847402498602060405160018152a16106c8565b8060005260976020526040600020600080526020526040600020600160ff19825416179055600033917f2f8788117e7eff1d82e926ec794901d17c78024a50270940304540a733656f0d8280a4836106c2565b3360008181527f683723e34a772b6e4f2c919bba7fa32ed8ea11a8325f54da7db716e9d9dd98c760205260408120805460ff1916600117905581907f2f8788117e7eff1d82e926ec794901d17c78024a50270940304540a733656f0d8180a4610660565b5080821615156105d7565b015190508680610560565b60fc6000908152600080516020613eab8339815191529350601f198516905b818110610883575090846001959493921061086a575b505050811b0160fc55610576565b015160001960f88460031b161c1916905586808061085c565b92936020600181928786015181550195019301610846565b90915060fc600052601f830160051c600080516020613eab8339815191520190602084106108fc575b90601f8493920160051c600080516020613eab83398151915201905b8181106108ed5750610549565b600081558493506001016108e0565b600080516020613eab83398151915291506108c4565b634e487b7160e01b600052604160045260246000fd5b01519050878061050c565b925060fb600052600080516020613ecb833981519152906000935b601f1984168510610990576001945083601f19811610610977575b505050811b0160fb55610522565b015160001960f88460031b161c19169055878080610969565b8181015183556020948501946001909301929091019061094e565b90915060fb600052601f830160051c600080516020613ecb8339815191520160208410610a0a575b908392915b601f820160051c600080516020613ecb8339815191520181106109fb57506104f5565b600081558493506001016109d8565b50600080516020613ecb8339815191526109d3565b61ffff191661010117600055866104b3565b50303b158015610499575060ff8116600114610499565b50600160ff821610610492565b61ffff19166101011760005583610433565b50303b158015610419575060ff8116600114610419565b50600160ff821610610412565b346102c95760403660031901126102c957610aa4612b70565b610aac612b86565b9060018060a01b0380911660005261010060205260406000209116600052602052602060ff604060002054166040519015158152f35b346102c95760603660031901126102c95760043560246001600160401b0381358181116102c957610b17903690600401612c9e565b9160449182359081116102c957610b32903690600401612d0c565b91610b3b613c0a565b84600052602060fd815260018060a01b03610b5e816040600020541615156130eb565b85519285518403610fc95760005b848110610bad5788887fb1940a60af4adfe4b354f5583017897bea8366eaef3162920e3b9b9641ba83c9610ba88a604051918291339583613901565b0390a3005b82610bb8828a613891565b5116600052610163845260ff6040600020541615610f9457610bda8188613891565b5115610f57578280610bec838b613891565b5116610160908282541614600014610d25575416610c0a8289613891565b51813b156102c957600091848392604051948593849263079cc67960e41b84523360048501528d8401525af18015610d1957610d0a575b50610c4c8188613891565b515b80610c59838a613891565b5103610cc75790610cc2918a6000526101648652604060002085610c7d848d613891565b511660005286526040600020610c948282546136f5565b905584610ca1838c613891565b51166000526101678652610cbb60406000209182546136f5565b90556138a5565b610b6c565b60405162461bcd60e51b815260048101869052601c818901527f496e636f6e73697374656e7420616d6f756e74206f6620746f6b656e0000000081850152606490fd5b610d1390612be7565b89610c41565b6040513d6000823e3d90fd5b50610d30828a613891565b51166101619084825416906040519187838b816370a0823160e01b958682528560048301525afa928315610d19578b8b878f8b908d95600099610f06575b5092610d908360009493610d888695610e089a9998613891565b511695613891565b519660405190868201926323b872dd60e01b845233908301528d82015260649788820152878152610dc081612c15565b7f5361666545524332303a206c6f772d6c6576656c2063616c6c206661696c656460405196610dee88612c30565b808852870152519082855af1610e0261354f565b91613df1565b8051898115918215610ee6575b5050905015610e9257508690898780610e2f8f8990613891565b5116955416916040519586938492835260048301525afa8015610d1957600090610e63575b610e5e9250613de4565b610c4e565b508582813d8311610e8b575b610e798183612c66565b810103126102c957610e5e9151610e54565b503d610e6f565b87691bdd081cdd58d8d9595960b21b6084927f5361666545524332303a204552433230206f7065726174696f6e20646964206e89602a8f6040519662461bcd60e51b88526004880152860152840152820152fd5b83809293500103126102c95788015180151581036102c957808938610e15565b9850505050505083813d8311610f50575b610f218183612c66565b810103126102c957610e08888c60008f968e610d908b8e610d88828796519d9598999a50505093509350610d6e565b503d610f17565b60405162461bcd60e51b8152600481018590526017818801527610d85b9b9bdd08131bd8dac816995c9bc8105b5bdd5b9d604a1b81840152606490fd5b60405162461bcd60e51b815260048101859052600f818801526e139bdd0815da1a5d195b1a5cdd1959608a1b81840152606490fd5b826e098cadccee8d0409ad2e6dac2e8c6d608b1b606492600f886040519462461bcd60e51b86526004860152840152820152fd5b346102c95760203660031901126102c9576001600160a01b0361101e612b70565b166000526101676020526020604060002054604051908152f35b346102c95760403660031901126102c957610273600435611057612b86565b90806000526097602052611072600160406000200154612e20565b612fd4565b346102c95761108536612bd1565b9061108e613c0a565b61109781613137565b6001600160a01b03906110ad9082163314613c4e565b6110c233826110bb86613137565b1614613c4e565b82821461123d57610162549060005b82811061116b57505050806000526101666020526040600020548260005260406000205411611152575b806000526101656020526040600020548260005261111f60406000209182546136f5565b905561112a81613c86565b337ff09b8580f0dd326f61a39ad067bd70a1d6915c9c938abcbff08d6c5f844cb310600080a4005b80600052604060002054826000526040600020556110fb565b6111ad908460005282610164602090808252604060002061118b85612de9565b949054600395861b1c1660005282526040600020546111b2575b5050506138a5565b6110d1565b876000528082526040600020866111c886612de9565b905490861b1c166000528252604060002054896000528183526040600020876111f087612de9565b905490871b1c16600052835261120c60406000209182546136f5565b90558760005281528460406000209261122485612de9565b9054911b1c1660005252600060408120558680806111a5565b60405162461bcd60e51b815260206004820152600d60248201526c14d85b5948151bdad95b881251609a1b6044820152606490fd5b346102c95760203660031901126102c957600435610162548110156102c95761129c602091612de9565b905460405160039290921b1c6001600160a01b03168152f35b346102c95760203660031901126102c957600435600090815260fd60205260409020546112ec906001600160a01b031615156130eb565b60006040516112fa81612bfa565b5261132260405161130a81612bfa565b60008152604051918291602083526020830190612b4b565b0390f35b346102c95760003660031901126102c957610160546040516001600160a01b039091168152602090f35b346102c95760803660031901126102c957611369612b70565b611371612b86565b90606435906044356001600160401b0383116102c957366023840112156102c9578260040135936113a185612dce565b926113af6040519485612c66565b85845236602487870101116102c95760006020876102739860246113f8990183890137860101526113e86113e384336132aa565b6131d5565b6113f3838383613373565b61367a565b61328a565b346102c95760003660031901126102c95760206040517f62229496573be0b0846a2fb48a94de962b501adb0b8eaf7f99924b10a81a19fe8152f35b346102c95760203660031901126102c9576001600160a01b03611459612b70565b16600052610163602052602060ff604060002054166040519015158152f35b346102c95760403660031901126102c957611491612b86565b60043560005261016460205260406000209060018060a01b03166000526020526020604060002054604051908152f35b346102c95760403660031901126102c9576114da612b70565b602435908115158092036102c9576001600160a01b03169033821461154f5733600052610100602052604060002082600052602052604060002060ff1981541660ff83161790556040519081527f17307eab39ab6107e8899845ad3d59bd9653f200f220920489ca2b5937696c3160203392a3005b60405162461bcd60e51b815260206004820152601960248201527f4552433732313a20617070726f766520746f2063616c6c6572000000000000006044820152606490fd5b346102c95760003660031901126102c957602060405160008152f35b346102c95760803660031901126102c9576001600160401b036004358181116102c9576115e1903690600401612d9e565b90916024358181116102c9576115fb903690600401612d9e565b9290916044358181116102c957611616903690600401612d9e565b9590916064359081116102c957611631903690600401612d9e565b61163c92919261304a565b6040519461164986612c30565b60018652602036818801376040519261166184612c30565b6001845260203681860137610160546001600160a01b031661168288613884565b5260005b82811061168f57005b61169a8184846138b4565b35906116a7818c8c6138b4565b35916001600160a01b03831683036102c957611720828e6116d682828e6116d1886117659b613926565b6138b4565b3584600052610164602052604060002060018060a01b036101605416600052602052604060002055611709828a8d6138b4565b35846000526101666020526040600020558b6138b4565b3561172a88613884565b52897fb1940a60af4adfe4b354f5583017897bea8366eaef3162920e3b9b9641ba83c96040518061175d8b339583613901565b0390a36138a5565b611686565b346102c95760003660031901126102c957602061015f54604051908152f35b346102c95760403660031901126102c9576004356024356001600160401b0381116102c9576117bc903690600401612c9e565b9081516117c881612c87565b926117d66040519485612c66565b818452601f196117e583612c87565b0192602093368587013760005b83811061180c576040518581528061132281880189612d6a565b600082815261016486526040902061184e91906001600160a01b036118318387613891565b511660005286526040600020546118488289613891565b526138a5565b6117f2565b346102c95760003660031901126102c957604051600060fc546118758161315d565b808452906001908181169081156118fc57506001146118b3575b6113228461189f81860382612c66565b604051918291602083526020830190612b4b565b60fc60009081529250600080516020613eab8339815191525b8284106118e457505050810160200161189f8261188f565b805460208587018101919091529093019281016118cc565b60ff191660208087019190915292151560051b8501909201925061189f915083905061188f565b346102c95760403660031901126102c95761193c612b86565b600435600052609760205260406000209060018060a01b0316600052602052602060ff604060002054166040519015158152f35b346102c95760603660031901126102c9576001600160401b036004358181116102c9576119a1903690600401612c9e565b906024359081116102c9576119ba903690600401612d0c565b906044356001600160a01b03811681036102c9576119df906119da613c0a565b613da9565b916119e8613c0a565b600083815260fd6020526040902054611a0b906001600160a01b031615156130eb565b815181518103611eae5760005b818110611a625760208580867fb1940a60af4adfe4b354f5583017897bea8366eaef3162920e3b9b9641ba83c9611a5788604051918291339583613901565b0390a3604051908152f35b6001600160a01b03611a748286613891565b511660005261016360205260ff6040600020541615611e7757611a978184613891565b5115611e38576001600160a01b03611aaf8286613891565b51166101609060018060a01b0382541614600014611bf957546001600160a01b0316611adb8285613891565b51813b156102c95760009160448392604051948593849263079cc67960e41b845233600485015260248401525af18015610d1957611bea575b50611b1f8184613891565b51905b81611b2d8286613891565b5103611ba557600086815261016460205260409020611ba092906001600160a01b03611b598489613891565b51166000526020526040600020611b718282546136f5565b90556001600160a01b03611b858388613891565b5116600052610167602052610cbb60406000209182546136f5565b611a18565b60405162461bcd60e51b815260206004820152601c60248201527f496e636f6e73697374656e7420616d6f756e74206f6620746f6b656e000000006044820152606490fd5b611bf390612be7565b85611b14565b5060246001600160a01b03611c0e8387613891565b5116602060018060a01b03610161541691604051938480926370a0823160e01b82528560048301525afa918215610d1957600092611e02575b50611ce4906001600160a01b03611c5e8589613891565b5116600080611c6d878a613891565b51936040519460208601916323b872dd60e01b83523360248801526044870152606486015260648552611c9f85612c15565b60405194611cac86612c30565b602086527f5361666545524332303a206c6f772d6c6576656c2063616c6c206661696c65646020870152519082855af1610e0261354f565b8051908115918215611ddf575b505015611d87576001600160a01b03611d0a8387613891565b511690602060018060a01b0361016154166024604051809581936370a0823160e01b835260048301525afa8015610d1957600090611d53575b611d4d9250613de4565b90611b22565b506020823d602011611d7f575b81611d6d60209383612c66565b810103126102c957611d4d9151611d43565b3d9150611d60565b60405162461bcd60e51b815260206004820152602a60248201527f5361666545524332303a204552433230206f7065726174696f6e20646964206e6044820152691bdd081cdd58d8d9595960b21b6064820152608490fd5b81925090602091810103126102c9576020015180151581036102c9578780611cf1565b9091506020813d602011611e30575b81611e1e60209383612c66565b810103126102c9575190611ce4611c47565b3d9150611e11565b60405162461bcd60e51b815260206004820152601760248201527610d85b9b9bdd08131bd8dac816995c9bc8105b5bdd5b9d604a1b6044820152606490fd5b60405162461bcd60e51b815260206004820152600f60248201526e139bdd0815da1a5d195b1a5cdd1959608a1b6044820152606490fd5b60405162461bcd60e51b815260206004820152600f60248201526e098cadccee8d0409ad2e6dac2e8c6d608b1b6044820152606490fd5b346102c95760003660031901126102c95760c9546040516001600160a01b039091168152602090f35b346102c95760003660031901126102c957611f2761304a565b611f2f613c0a565b600160ff1960335416176033557f62e78cea01bee320cd4e420270b5ea74000d11b0c9f74754ebdbfc544b05a2586020604051338152a1005b346102c95760003660031901126102c957611f8161304a565b60c980546001600160a01b031981169091556000906001600160a01b03167f8be0079c531659141344cd1fd0a4f28419497f9722a3daafe3b4186f6b6457e08280a3005b346102c95760203660031901126102c9576001600160a01b03611fe6612b70565b1680156120055760005260fe6020526020604060002054604051908152f35b60405162461bcd60e51b815260206004820152602960248201527f4552433732313a2061646472657373207a65726f206973206e6f7420612076616044820152683634b21037bbb732b960b91b6064820152608490fd5b346102c95760203660031901126102c957602061207a6119da612b70565b604051908152f35b346102c95760203660031901126102c95760206120a0600435613137565b6040516001600160a01b039091168152f35b346102c95760003660031901126102c957610161546040516001600160a01b039091168152602090f35b346102c95760003660031901126102c957602060ff603354166040519015158152f35b346102c9576020806003193601126102c9576004356001600160401b0381116102c957612130903690600401612c9e565b9061213961304a565b815160005b81811061217f576040518381527f8265259f0b778832be509d0494140f8e8bf0eaf8395f5c9ab017deee0d7befd1908061217a818701886138c4565b0390a1005b6001600160a01b03806121928387613891565b51166000526101639081855260ff604060002054166121f15790816121c684936121bf6121ec968a613891565b5116613b67565b6121d08388613891565b511660005284526040600020600160ff198254161790556138a5565b61213e565b60405162461bcd60e51b8152600481018690526013602482015272105b1c9958591e4815da1a5d195b1a5cdd1959606a1b6044820152606490fd5b346102c95761223a36612bd1565b90612243613c0a565b3360009081527f6ced62298f1df96fa3ccc25f56181570bf4d478ad13f86ae8a270acdf9e0730760209081526040909120549091907f62229496573be0b0846a2fb48a94de962b501adb0b8eaf7f99924b10a81a19fe9060ff16156122e35750600081815260fd835260409020546101659291906122cb906001600160a01b031615156130eb565b600052526122df60406000209182546136f5565b9055005b826122ed33613713565b916040516122fa81612c4b565b604281528281019160603684378151156124735760308353815160019081101561247357607860218401536041905b8082116124195750506123d6576123a2936123b19260489260405196879376020b1b1b2b9b9a1b7b73a3937b61d1030b1b1b7bab73a1604d1b88860152612379815180928a603789019101612b28565b8401917001034b99036b4b9b9b4b733903937b6329607d1b603784015251809386840190612b28565b01036028810185520183612c66565b6123d260405192839262461bcd60e51b845260048401526024830190612b4b565b0390fd5b6064836040519062461bcd60e51b825280600483015260248201527f537472696e67733a20686578206c656e67746820696e73756666696369656e746044820152fd5b9091600f81166010811015612473576f181899199a1a9b1b9c1cb0b131b232b360811b901a6124488486613702565b5360041c91801561245d576000190190612329565b634e487b7160e01b600052601160045260246000fd5b634e487b7160e01b600052603260045260246000fd5b346102c9576020806003193601126102c957600435906124a7613c0a565b6124b46113e383336132aa565b610162549060005b8281106124cc5761027384613c86565b612513908460005261016480845260406000206124e883612de9565b92909160018060a01b03809354600395861b1c166000528652604060002054612518575050506138a5565b6124bc565b8760005280865260406000208261252e86612de9565b905490861b1c1660005286526040600020548261254a86612de9565b905490861b1c1660005261016787526125696040600020918254613de4565b905587600052855260406000209161258084612de9565b9054911b1c166000528352600060408120558580806111a5565b346102c9576102736113f86125ae36612b9c565b90604051926125bc84612bfa565b600084526113e86113e384336132aa565b346102c95760003660031901126102c9576125e661304a565b60335460ff8116156126255760ff19166033557f5db9ee0a495bf2e6ff9c91a7834c1ba4fdd244a5e8aa4e537bd38aeae4b073aa6020604051338152a1005b60405162461bcd60e51b815260206004820152601460248201527314185d5cd8589b194e881b9bdd081c185d5cd95960621b6044820152606490fd5b346102c95760003660031901126102c957602060ff6101615460a01c166040519015158152f35b346102c95760203660031901126102c9576004356000526101656020526020604060002054604051908152f35b346102c95760403660031901126102c9576126ce612b86565b336001600160a01b038216036126ea5761027390600435612fd4565b60405162461bcd60e51b815260206004820152602f60248201527f416363657373436f6e74726f6c3a2063616e206f6e6c792072656e6f756e636560448201526e103937b632b9903337b91039b2b63360891b6064820152608490fd5b346102c95760403660031901126102c957600435612763612b86565b81600052609760205261277d600160406000200154612e20565b81600052609760205260406000209060018060a01b0316908160005260205260ff60406000205416156127ac57005b8160005260976020526040600020816000526020526040600020600160ff1982541617905533917f2f8788117e7eff1d82e926ec794901d17c78024a50270940304540a733656f0d600080a4005b346102c95760203660031901126102c95760043560005260976020526020600160406000200154604051908152f35b346102c95761027361283a36612b9c565b916128486113e384336132aa565b613373565b346102c95760003660031901126102c9576020604051600080516020613e8b8339815191528152f35b346102c95760403660031901126102c95761288f612b70565b602435906001600160a01b0380806128a685613137565b169216918083146129a25780331490811561297c575b501561291157600083815260ff6020526040902080546001600160a01b031916831790556128e983613137565b167f8c5be1e5ebec7d5bd14f71427d1e84f3dd0314c0f7b2291e5b200ac8c7c3b925600080a4005b60405162461bcd60e51b815260206004820152603d60248201527f4552433732313a20617070726f76652063616c6c6572206973206e6f7420746f60448201527f6b656e206f776e6572206f7220617070726f76656420666f7220616c6c0000006064820152608490fd5b905060005261010060205260406000203360005260205260ff60406000205416846128bc565b60405162461bcd60e51b815260206004820152602160248201527f4552433732313a20617070726f76616c20746f2063757272656e74206f776e656044820152603960f91b6064820152608490fd5b346102c95760203660031901126102c95760206120a0600435613197565b346102c95760003660031901126102c957604051600060fb54612a318161315d565b808452906001908181169081156118fc5750600114612a5a576113228461189f81860382612c66565b60fb60009081529250600080516020613ecb8339815191525b828410612a8b57505050810160200161189f8261188f565b80546020858701810191909152909301928101612a73565b346102c95760203660031901126102c9576004359063ffffffff60e01b82168092036102c9576020916380ac58cd60e01b8114908115612b17575b8115612aec575b5015158152f35b637965db0b60e01b811491508115612b06575b5083612ae5565b6301ffc9a760e01b14905083612aff565b635b5e139f60e01b81149150612ade565b60005b838110612b3b5750506000910152565b8181015183820152602001612b2b565b90602091612b6481518092818552858086019101612b28565b601f01601f1916010190565b600435906001600160a01b03821682036102c957565b602435906001600160a01b03821682036102c957565b60609060031901126102c9576001600160a01b039060043582811681036102c9579160243590811681036102c9579060443590565b60409060031901126102c9576004359060243590565b6001600160401b03811161091257604052565b602081019081106001600160401b0382111761091257604052565b60a081019081106001600160401b0382111761091257604052565b604081019081106001600160401b0382111761091257604052565b608081019081106001600160401b0382111761091257604052565b90601f801991011681019081106001600160401b0382111761091257604052565b6001600160401b0381116109125760051b60200190565b81601f820112156102c957803591612cb583612c87565b92612cc36040519485612c66565b808452602092838086019260051b8201019283116102c9578301905b828210612ced575050505090565b81356001600160a01b03811681036102c9578152908301908301612cdf565b81601f820112156102c957803591612d2383612c87565b92612d316040519485612c66565b808452602092838086019260051b8201019283116102c9578301905b828210612d5b575050505090565b81358152908301908301612d4d565b90815180825260208080930193019160005b828110612d8a575050505090565b835185529381019392810192600101612d7c565b9181601f840112156102c9578235916001600160401b0383116102c9576020808501948460051b0101116102c957565b6001600160401b03811161091257601f01601f191660200190565b6101628054821015612473576000527f29af0939a5988989bfee913a9ad10b9335cb63ebc9fd2b69e5f877d0455ac9190190600090565b60009080825260209060978252604092838120338252835260ff848220541615612e4a5750505050565b612e5333613713565b91845190612e6082612c4b565b60428252848201926060368537825115612fc05760308453825190600191821015612fc05790607860218501536041915b818311612f5257505050612f105760486123d2938693612ef493612ee5985198899376020b1b1b2b9b9a1b7b73a3937b61d1030b1b1b7bab73a1604d1b8a860152612379815180928c603789019101612b28565b01036028810187520185612c66565b5192839262461bcd60e51b845260048401526024830190612b4b565b60648486519062461bcd60e51b825280600483015260248201527f537472696e67733a20686578206c656e67746820696e73756666696369656e746044820152fd5b909192600f81166010811015612fac576f181899199a1a9b1b9c1cb0b131b232b360811b901a612f828587613702565b5360041c928015612f9857600019019190612e91565b634e487b7160e01b82526011600452602482fd5b634e487b7160e01b83526032600452602483fd5b634e487b7160e01b81526032600452602490fd5b906000918083526097602052604083209160018060a01b03169182845260205260ff60408420541661300557505050565b8083526097602052604083208284526020526040832060ff1981541690557ff6391f5c32d9c69d2a47ea670b442974b53935d1edc7fd64eb21e047a839171b339380a4565b60c9546001600160a01b0316330361305e57565b606460405162461bcd60e51b815260206004820152602060248201527f4f776e61626c653a2063616c6c6572206973206e6f7420746865206f776e65726044820152fd5b60c980546001600160a01b039283166001600160a01b0319821681179092559091167f8be0079c531659141344cd1fd0a4f28419497f9722a3daafe3b4186f6b6457e0600080a3565b156130f257565b60405162461bcd60e51b815260206004820152601860248201527f4552433732313a20696e76616c696420746f6b656e20494400000000000000006044820152606490fd5b600090815260fd60205260409020546001600160a01b031661315a8115156130eb565b90565b90600182811c9216801561318d575b602083101461317757565b634e487b7160e01b600052602260045260246000fd5b91607f169161316c565b600081815260fd60205260409020546131ba906001600160a01b031615156130eb565b600090815260ff60205260409020546001600160a01b031690565b156131dc57565b60405162461bcd60e51b815260206004820152602d60248201527f4552433732313a2063616c6c6572206973206e6f7420746f6b656e206f776e6560448201526c1c881bdc88185c1c1c9bdd9959609a1b6064820152608490fd5b60809060208152603260208201527f4552433732313a207472616e7366657220746f206e6f6e20455243373231526560408201527131b2b4bb32b91034b6b83632b6b2b73a32b960711b60608201520190565b1561329157565b60405162461bcd60e51b8152806123d260048201613237565b906001600160a01b0380806132be84613137565b169316918383149384156132f1575b5083156132db575b50505090565b6132e791929350613197565b16143880806132d5565b90935060005261010060205260406000208260005260205260ff6040600020541692386132cd565b1561332057565b60405162461bcd60e51b815260206004820152602560248201527f4552433732313a207472616e736665722066726f6d20696e636f72726563742060448201526437bbb732b960d91b6064820152608490fd5b9061339b9161338184613137565b6001600160a01b0393918416928492909183168414613319565b169182156134fe576133ab613c0a565b8160ff6101615460a01c161561344b575b6133d0916133c986613137565b1614613319565b7fddf252ad1be2c89b69c2b068fc378daa952ba7f163c4a11628f55a4df523b3ef600084815260ff602052604081206001600160601b0360a01b9081815416905583825260fe602052604082206000198154019055848252604082206001815401905585825260fd60205284604083209182541617905580a4565b5060008281527ff5194f580d3eac50d58846e4b10f1e85f26fc764de10a71d78de19830da269db602052604081205460ff1690600080516020613e8b83398151915282156134dc575b5050156134a157816133bc565b60405162461bcd60e51b8152602060048201526013602482015272151c985b9cd9995c881a5cc8131a5b5a5d1959606a1b6044820152606490fd5b60ff925090604091815260976020528181208682526020522054163880613494565b60405162461bcd60e51b8152602060048201526024808201527f4552433732313a207472616e7366657220746f20746865207a65726f206164646044820152637265737360e01b6064820152608490fd5b3d1561357a573d9061356082612dce565b9161356e6040519384612c66565b82523d6000602084013e565b606090565b9091600091803b15613671576135ca6020918493604051948580948193630a85bd0160e11b9a8b84523360048501528460248501526044840152608060648401526084830190612b4b565b03926001600160a01b03165af190829082613622575b5050613614576135ee61354f565b8051908161360f5760405162461bcd60e51b8152806123d260048201613237565b602001fd5b6001600160e01b0319161490565b909192506020813d8211613669575b8161363e60209383612c66565b810103126136655751906001600160e01b03198216820361366257509038806135e0565b80fd5b5080fd5b3d9150613631565b50505050600190565b91926000929190813b156136eb576020916136d09185604051958680958194630a85bd0160e11b9b8c845233600485015260018060a01b0380951660248501526044840152608060648401526084830190612b4b565b0393165af190829082613622575050613614576135ee61354f565b5050505050600190565b9190820180921161245d57565b908151811015612473570160200190565b60405190606082018281106001600160401b0382111761091257604052602a82526020820160403682378251156124735760309053815160019081101561247357607860218401536029905b8082116137b357505061376f5790565b606460405162461bcd60e51b815260206004820152602060248201527f537472696e67733a20686578206c656e67746820696e73756666696369656e746044820152fd5b9091600f8116601081101561380c576f181899199a1a9b1b9c1cb0b131b232b360811b901a6137e28486613702565b5360041c9180156137f757600019019061375f565b60246000634e487b7160e01b81526011600452fd5b60246000634e487b7160e01b81526032600452fd5b1561382857565b60405162461bcd60e51b815260206004820152602e60248201527f496e697469616c697a61626c653a20636f6e747261637420697320616c72656160448201526d191e481a5b9a5d1a585b1a5e995960921b6064820152608490fd5b8051156124735760200190565b80518210156124735760209160051b010190565b600019811461245d5760010190565b91908110156124735760051b0190565b90815180825260208080930193019160005b8281106138e4575050505090565b83516001600160a01b0316855293810193928101926001016138d6565b909161391861315a936040845260408401906138c4565b916020818403910152612d6a565b9060409182519261393684612bfa565b60008085526001600160a01b038316918215613a9d57600085815260fd6020526040902054613971906001600160a01b031615155b15613ae0565b613979613c0a565b60ff6101615460a01c1615613a11575b938092613a0f9694926113f8966139b861396b8560005260fd60205260018060a01b0360406000205416151590565b82825260fe6020528082206001815401905583825260fd6020528120826001600160601b0360a01b8254161790557fddf252ad1be2c89b69c2b068fc378daa952ba7f163c4a11628f55a4df523b3ef8180a461357f565b565b600080516020613e8b833981519152808352609760205281832083805260205260ff8284205416908115613a7e575b50613989575162461bcd60e51b8152602060048201526013602482015272151c985b9cd9995c881a5cc8131a5b5a5d1959606a1b6044820152606490fd5b90508252609760205280822083835260205260ff818320541638613a40565b5162461bcd60e51b815260206004820181905260248201527f4552433732313a206d696e7420746f20746865207a65726f20616464726573736044820152606490fd5b15613ae757565b60405162461bcd60e51b815260206004820152601c60248201527f4552433732313a20746f6b656e20616c7265616479206d696e746564000000006044820152606490fd5b15613b3357565b60405162461bcd60e51b815260206004820152600c60248201526b5a65726f204164647265737360a01b6044820152606490fd5b61016280546801000000000000000081101561091257613b8c91600182019055612de9565b819291549060031b9160018060a01b03809116831b921b1916179055565b15613bb157565b60405162461bcd60e51b815260206004820152602b60248201527f496e697469616c697a61626c653a20636f6e7472616374206973206e6f74206960448201526a6e697469616c697a696e6760a81b6064820152608490fd5b60ff60335416613c1657565b60405162461bcd60e51b815260206004820152601060248201526f14185d5cd8589b194e881c185d5cd95960821b6044820152606490fd5b15613c5557565b60405162461bcd60e51b8152602060048201526009602482015268139bdd0813dddb995960ba1b6044820152606490fd5b613c8f81613137565b613c97613c0a565b60ff6101615460a01c1615613d29575b50613cb181613137565b600082815260ff6020908152604080832080546001600160a01b03199081169091556001600160a01b0390941680845260fe8352818420805460001901905585845260fd90925282208054909316909255907fddf252ad1be2c89b69c2b068fc378daa952ba7f163c4a11628f55a4df523b3ef8280a4565b6001600160a01b031660009081527ff5194f580d3eac50d58846e4b10f1e85f26fc764de10a71d78de19830da269db602052604081205460ff1690600080516020613e8b8339815191528215613d87575b5050156134a15738613ca7565b60ff925090604091815260976020528181208180526020522054163880613d7a565b613db1613c0a565b61015f908154916001830180931161245d57613dd09183809255613926565b806000526101666020524260406000205590565b9190820391821161245d57565b91929015613e535750815115613e05575090565b3b15613e0e5790565b60405162461bcd60e51b815260206004820152601d60248201527f416464726573733a2063616c6c20746f206e6f6e2d636f6e74726163740000006044820152606490fd5b825190915015613e665750805190602001fd5b60405162461bcd60e51b8152602060048201529081906123d2906024830190612b4b56fe9e5264dc7c87d353bbd2c0c84c6d015ae4777bae8d1b96b42d12656c8f59c5f9371f36870d18f32a11fea0f144b021c8b407bb50f8e0267c711123f454b963c03e7257b7272bb46d49cd6019b04ddee20da7c0cb13f7c1ec3391291b2ccebabca26469706673582212206caa97b4657d5977651f3220c8199b6cfd03399ae3c0cf96e8697be222f497e964736f6c63430008130033",
  "linkReferences": {},
  "deployedLinkReferences": {}
}