{
  "_format": "hh-sol-artifact-1",
  "contractName": "MuonNodeStaking",
  "sourceName": "contracts/MuonNodeStaking.sol",
  "abi": [
    {
      "anonymous": false,
      "inputs": [
        {
          "indexed": false,
          "internalType": "uint256",
          "name": "exitPendingPeriod",
          "type": "uint256"
        }
      ],
      "name": "ExitPendingPeriodUpdated",
      "type": "event"
    },
    {
      "anonymous": false,
      "inputs": [
        {
          "indexed": true,
          "internalType": "address",
          "name": "stakerAddress",
          "type": "address"
        }
      ],
      "name": "ExitRequested",
      "type": "event"
    },
    {
      "anonymous": false,
      "inputs": [
        {
          "indexed": true,
          "internalType": "string",
          "name": "functionName",
          "type": "string"
        },
        {
          "indexed": false,
          "internalType": "bool",
          "name": "isPaused",
          "type": "bool"
        }
      ],
      "name": "FunctionPauseStatusChanged",
      "type": "event"
    },
    {
      "anonymous": false,
      "inputs": [
        {
          "indexed": false,
          "internalType": "uint8",
          "name": "version",
          "type": "uint8"
        }
      ],
      "name": "Initialized",
      "type": "event"
    },
    {
      "anonymous": false,
      "inputs": [
        {
          "indexed": false,
          "internalType": "uint256",
          "name": "minStakeAmount",
          "type": "uint256"
        }
      ],
      "name": "MinStakeAmountUpdated",
      "type": "event"
    },
    {
      "anonymous": false,
      "inputs": [
        {
          "indexed": false,
          "internalType": "uint256",
          "name": "muonAppId",
          "type": "uint256"
        }
      ],
      "name": "MuonAppIdUpdated",
      "type": "event"
    },
    {
      "anonymous": false,
      "inputs": [
        {
          "indexed": true,
          "internalType": "address",
          "name": "nodeAddress",
          "type": "address"
        },
        {
          "indexed": true,
          "internalType": "address",
          "name": "stakerAddress",
          "type": "address"
        },
        {
          "indexed": false,
          "internalType": "string",
          "name": "peerId",
          "type": "string"
        }
      ],
      "name": "MuonNodeAdded",
      "type": "event"
    },
    {
      "anonymous": false,
      "inputs": [
        {
          "components": [
            {
              "internalType": "uint256",
              "name": "x",
              "type": "uint256"
            },
            {
              "internalType": "uint8",
              "name": "parity",
              "type": "uint8"
            }
          ],
          "indexed": false,
          "internalType": "struct MuonClientBase.PublicKey",
          "name": "muonPublicKey",
          "type": "tuple"
        }
      ],
      "name": "MuonPublicKeyUpdated",
      "type": "event"
    },
    {
      "anonymous": false,
      "inputs": [
        {
          "indexed": false,
          "internalType": "bytes",
          "name": "reqId",
          "type": "bytes"
        },
        {
          "components": [
            {
              "internalType": "uint256",
              "name": "x",
              "type": "uint256"
            },
            {
              "internalType": "uint8",
              "name": "parity",
              "type": "uint8"
            }
          ],
          "indexed": false,
          "internalType": "struct MuonClientBase.PublicKey",
          "name": "pubKey",
          "type": "tuple"
        }
      ],
      "name": "MuonTX",
      "type": "event"
    },
    {
      "anonymous": false,
      "inputs": [
        {
          "indexed": false,
          "internalType": "bytes",
          "name": "reqId",
          "type": "bytes"
        },
        {
          "indexed": true,
          "internalType": "address",
          "name": "stakerAddress",
          "type": "address"
        },
        {
          "indexed": false,
          "internalType": "uint256",
          "name": "amount",
          "type": "uint256"
        }
      ],
      "name": "RewardGot",
      "type": "event"
    },
    {
      "anonymous": false,
      "inputs": [
        {
          "indexed": false,
          "internalType": "uint256",
          "name": "reward",
          "type": "uint256"
        },
        {
          "indexed": true,
          "internalType": "uint256",
          "name": "periodStart",
          "type": "uint256"
        },
        {
          "indexed": false,
          "internalType": "uint256",
          "name": "_rewardPeriod",
          "type": "uint256"
        }
      ],
      "name": "RewardsDistributed",
      "type": "event"
    },
    {
      "anonymous": false,
      "inputs": [
        {
          "indexed": true,
          "internalType": "bytes32",
          "name": "role",
          "type": "bytes32"
        },
        {
          "indexed": true,
          "internalType": "bytes32",
          "name": "previousAdminRole",
          "type": "bytes32"
        },
        {
          "indexed": true,
          "internalType": "bytes32",
          "name": "newAdminRole",
          "type": "bytes32"
        }
      ],
      "name": "RoleAdminChanged",
      "type": "event"
    },
    {
      "anonymous": false,
      "inputs": [
        {
          "indexed": true,
          "internalType": "bytes32",
          "name": "role",
          "type": "bytes32"
        },
        {
          "indexed": true,
          "internalType": "address",
          "name": "account",
          "type": "address"
        },
        {
          "indexed": true,
          "internalType": "address",
          "name": "sender",
          "type": "address"
        }
      ],
      "name": "RoleGranted",
      "type": "event"
    },
    {
      "anonymous": false,
      "inputs": [
        {
          "indexed": true,
          "internalType": "bytes32",
          "name": "role",
          "type": "bytes32"
        },
        {
          "indexed": true,
          "internalType": "address",
          "name": "account",
          "type": "address"
        },
        {
          "indexed": true,
          "internalType": "address",
          "name": "sender",
          "type": "address"
        }
      ],
      "name": "RoleRevoked",
      "type": "event"
    },
    {
      "anonymous": false,
      "inputs": [
        {
          "indexed": true,
          "internalType": "address",
          "name": "stakerAddress",
          "type": "address"
        },
        {
          "indexed": false,
          "internalType": "bool",
          "name": "locked",
          "type": "bool"
        }
      ],
      "name": "StakeLockStatusChanged",
      "type": "event"
    },
    {
      "anonymous": false,
      "inputs": [
        {
          "indexed": true,
          "internalType": "address",
          "name": "stakerAddress",
          "type": "address"
        },
        {
          "indexed": false,
          "internalType": "uint256",
          "name": "amount",
          "type": "uint256"
        }
      ],
      "name": "Staked",
      "type": "event"
    },
    {
      "anonymous": false,
      "inputs": [
        {
          "indexed": true,
          "internalType": "address",
          "name": "token",
          "type": "address"
        },
        {
          "indexed": false,
          "internalType": "uint256",
          "name": "multiplier",
          "type": "uint256"
        }
      ],
      "name": "StakingTokenUpdated",
      "type": "event"
    },
    {
      "anonymous": false,
      "inputs": [
        {
          "indexed": true,
          "internalType": "uint8",
          "name": "tier",
          "type": "uint8"
        },
        {
          "indexed": false,
          "internalType": "uint256",
          "name": "maxStakeAmount",
          "type": "uint256"
        }
      ],
      "name": "TierMaxStakeUpdated",
      "type": "event"
    },
    {
      "anonymous": false,
      "inputs": [
        {
          "indexed": false,
          "internalType": "address",
          "name": "verifierAddress",
          "type": "address"
        }
      ],
      "name": "VerifierUpdated",
      "type": "event"
    },
    {
      "anonymous": false,
      "inputs": [
        {
          "indexed": true,
          "internalType": "address",
          "name": "stakerAddress",
          "type": "address"
        },
        {
          "indexed": false,
          "internalType": "uint256",
          "name": "tokenId",
          "type": "uint256"
        }
      ],
      "name": "Withdrawn",
      "type": "event"
    },
    {
      "inputs": [],
      "name": "DAO_ROLE",
      "outputs": [
        {
          "internalType": "bytes32",
          "name": "",
          "type": "bytes32"
        }
      ],
      "stateMutability": "view",
      "type": "function"
    },
    {
      "inputs": [],
      "name": "DEFAULT_ADMIN_ROLE",
      "outputs": [
        {
          "internalType": "bytes32",
          "name": "",
          "type": "bytes32"
        }
      ],
      "stateMutability": "view",
      "type": "function"
    },
    {
      "inputs": [],
      "name": "HALF_Q",
      "outputs": [
        {
          "internalType": "uint256",
          "name": "",
          "type": "uint256"
        }
      ],
      "stateMutability": "view",
      "type": "function"
    },
    {
      "inputs": [],
      "name": "Q",
      "outputs": [
        {
          "internalType": "uint256",
          "name": "",
          "type": "uint256"
        }
      ],
      "stateMutability": "view",
      "type": "function"
    },
    {
      "inputs": [],
      "name": "REWARD_ROLE",
      "outputs": [
        {
          "internalType": "bytes32",
          "name": "",
          "type": "bytes32"
        }
      ],
      "stateMutability": "view",
      "type": "function"
    },
    {
      "inputs": [
        {
          "internalType": "address",
          "name": "nodeAddress",
          "type": "address"
        },
        {
          "internalType": "string",
          "name": "peerId",
          "type": "string"
        },
        {
          "internalType": "uint256",
          "name": "tokenId",
          "type": "uint256"
        }
      ],
      "name": "addMuonNode",
      "outputs": [],
      "stateMutability": "nonpayable",
      "type": "function"
    },
    {
      "inputs": [],
      "name": "bondedToken",
      "outputs": [
        {
          "internalType": "contract IBondedToken",
          "name": "",
          "type": "address"
        }
      ],
      "stateMutability": "view",
      "type": "function"
    },
    {
      "inputs": [
        {
          "internalType": "address",
          "name": "stakerAddress",
          "type": "address"
        }
      ],
      "name": "deactiveMuonNode",
      "outputs": [],
      "stateMutability": "nonpayable",
      "type": "function"
    },
    {
      "inputs": [
        {
          "internalType": "uint256",
          "name": "reward",
          "type": "uint256"
        }
      ],
      "name": "distributeRewards",
      "outputs": [],
      "stateMutability": "nonpayable",
      "type": "function"
    },
    {
      "inputs": [
        {
          "internalType": "address",
          "name": "stakerAddress",
          "type": "address"
        }
      ],
      "name": "earned",
      "outputs": [
        {
          "internalType": "uint256",
          "name": "",
          "type": "uint256"
        }
      ],
      "stateMutability": "view",
      "type": "function"
    },
    {
      "inputs": [],
      "name": "exitPendingPeriod",
      "outputs": [
        {
          "internalType": "uint256",
          "name": "",
          "type": "uint256"
        }
      ],
      "stateMutability": "view",
      "type": "function"
    },
    {
      "inputs": [
        {
          "internalType": "string",
          "name": "",
          "type": "string"
        }
      ],
      "name": "functionPauseStatus",
      "outputs": [
        {
          "internalType": "bool",
          "name": "",
          "type": "bool"
        }
      ],
      "stateMutability": "view",
      "type": "function"
    },
    {
      "inputs": [
        {
          "internalType": "uint256",
          "name": "amount",
          "type": "uint256"
        },
        {
          "internalType": "uint256",
          "name": "paidRewardPerToken",
          "type": "uint256"
        },
        {
          "internalType": "bytes",
          "name": "reqId",
          "type": "bytes"
        },
        {
          "components": [
            {
              "internalType": "uint256",
              "name": "signature",
              "type": "uint256"
            },
            {
              "internalType": "address",
              "name": "owner",
              "type": "address"
            },
            {
              "internalType": "address",
              "name": "nonce",
              "type": "address"
            }
          ],
          "internalType": "struct MuonClientBase.SchnorrSign",
          "name": "signature",
          "type": "tuple"
        }
      ],
      "name": "getReward",
      "outputs": [],
      "stateMutability": "nonpayable",
      "type": "function"
    },
    {
      "inputs": [
        {
          "internalType": "bytes32",
          "name": "role",
          "type": "bytes32"
        }
      ],
      "name": "getRoleAdmin",
      "outputs": [
        {
          "internalType": "bytes32",
          "name": "",
          "type": "bytes32"
        }
      ],
      "stateMutability": "view",
      "type": "function"
    },
    {
      "inputs": [
        {
          "internalType": "bytes32",
          "name": "role",
          "type": "bytes32"
        },
        {
          "internalType": "address",
          "name": "account",
          "type": "address"
        }
      ],
      "name": "grantRole",
      "outputs": [],
      "stateMutability": "nonpayable",
      "type": "function"
    },
    {
      "inputs": [
        {
          "internalType": "bytes32",
          "name": "role",
          "type": "bytes32"
        },
        {
          "internalType": "address",
          "name": "account",
          "type": "address"
        }
      ],
      "name": "hasRole",
      "outputs": [
        {
          "internalType": "bool",
          "name": "",
          "type": "bool"
        }
      ],
      "stateMutability": "view",
      "type": "function"
    },
    {
      "inputs": [
        {
          "internalType": "address",
          "name": "_muonTokenAddress",
          "type": "address"
        },
        {
          "internalType": "address",
          "name": "_nodeManagerAddress",
          "type": "address"
        },
        {
          "internalType": "uint256",
          "name": "_muonAppId",
          "type": "uint256"
        },
        {
          "components": [
            {
              "internalType": "uint256",
              "name": "x",
              "type": "uint256"
            },
            {
              "internalType": "uint8",
              "name": "parity",
              "type": "uint8"
            }
          ],
          "internalType": "struct MuonClientBase.PublicKey",
          "name": "_muonPublicKey",
          "type": "tuple"
        },
        {
          "internalType": "address",
          "name": "_bondedTokenAddress",
          "type": "address"
        },
        {
          "internalType": "uint256",
          "name": "_totalStaked",
          "type": "uint256"
        },
        {
          "internalType": "uint256",
          "name": "_notPaidRewards",
          "type": "uint256"
        },
        {
          "internalType": "uint256",
          "name": "_periodFinish",
          "type": "uint256"
        },
        {
          "internalType": "uint256",
          "name": "_rewardRate",
          "type": "uint256"
        },
        {
          "internalType": "uint256",
          "name": "_lastUpdateTime",
          "type": "uint256"
        },
        {
          "internalType": "uint256",
          "name": "_rewardPerTokenStored",
          "type": "uint256"
        }
      ],
      "name": "initialize",
      "outputs": [],
      "stateMutability": "nonpayable",
      "type": "function"
    },
    {
      "inputs": [
        {
          "internalType": "address",
          "name": "",
          "type": "address"
        }
      ],
      "name": "isStakingToken",
      "outputs": [
        {
          "internalType": "uint16",
          "name": "",
          "type": "uint16"
        }
      ],
      "stateMutability": "view",
      "type": "function"
    },
    {
      "inputs": [],
      "name": "lastTimeRewardApplicable",
      "outputs": [
        {
          "internalType": "uint256",
          "name": "",
          "type": "uint256"
        }
      ],
      "stateMutability": "view",
      "type": "function"
    },
    {
      "inputs": [],
      "name": "lastUpdateTime",
      "outputs": [
        {
          "internalType": "uint256",
          "name": "",
          "type": "uint256"
        }
      ],
      "stateMutability": "view",
      "type": "function"
    },
    {
      "inputs": [
        {
          "internalType": "address[]",
          "name": "tokens",
          "type": "address[]"
        },
        {
          "internalType": "uint256[]",
          "name": "amounts",
          "type": "uint256[]"
        }
      ],
      "name": "lockToBondedToken",
      "outputs": [],
      "stateMutability": "nonpayable",
      "type": "function"
    },
    {
      "inputs": [
        {
          "internalType": "address",
          "name": "",
          "type": "address"
        }
      ],
      "name": "lockedStakes",
      "outputs": [
        {
          "internalType": "bool",
          "name": "",
          "type": "bool"
        }
      ],
      "stateMutability": "view",
      "type": "function"
    },
    {
      "inputs": [
        {
          "internalType": "uint256",
          "name": "tokenIdA",
          "type": "uint256"
        }
      ],
      "name": "mergeBondedTokens",
      "outputs": [],
      "stateMutability": "nonpayable",
      "type": "function"
    },
    {
      "inputs": [
        {
          "internalType": "address[]",
          "name": "_user",
          "type": "address[]"
        },
        {
          "internalType": "uint256[]",
          "name": "_balance",
          "type": "uint256[]"
        },
        {
          "internalType": "uint256[]",
          "name": "_paidReward",
          "type": "uint256[]"
        },
        {
          "internalType": "uint256[]",
          "name": "_paidRewardPerToken",
          "type": "uint256[]"
        },
        {
          "internalType": "uint256[]",
          "name": "_pendingRewards",
          "type": "uint256[]"
        },
        {
          "internalType": "uint256[]",
          "name": "_tokenId",
          "type": "uint256[]"
        },
        {
          "internalType": "address[]",
          "name": "_nodeAddress",
          "type": "address[]"
        },
        {
          "internalType": "string[]",
          "name": "_peerId",
          "type": "string[]"
        }
      ],
      "name": "migrate",
      "outputs": [],
      "stateMutability": "nonpayable",
      "type": "function"
    },
    {
      "inputs": [],
      "name": "minStakeAmount",
      "outputs": [
        {
          "internalType": "uint256",
          "name": "",
          "type": "uint256"
        }
      ],
      "stateMutability": "view",
      "type": "function"
    },
    {
      "inputs": [],
      "name": "muonAppId",
      "outputs": [
        {
          "internalType": "uint256",
          "name": "",
          "type": "uint256"
        }
      ],
      "stateMutability": "view",
      "type": "function"
    },
    {
      "inputs": [],
      "name": "muonPublicKey",
      "outputs": [
        {
          "internalType": "uint256",
          "name": "x",
          "type": "uint256"
        },
        {
          "internalType": "uint8",
          "name": "parity",
          "type": "uint8"
        }
      ],
      "stateMutability": "view",
      "type": "function"
    },
    {
      "inputs": [],
      "name": "muonToken",
      "outputs": [
        {
          "internalType": "contract IERC20Upgradeable",
          "name": "",
          "type": "address"
        }
      ],
      "stateMutability": "view",
      "type": "function"
    },
    {
      "inputs": [
        {
          "internalType": "bytes",
          "name": "reqId",
          "type": "bytes"
        },
        {
          "internalType": "uint256",
          "name": "hash",
          "type": "uint256"
        },
        {
          "components": [
            {
              "internalType": "uint256",
              "name": "signature",
              "type": "uint256"
            },
            {
              "internalType": "address",
              "name": "owner",
              "type": "address"
            },
            {
              "internalType": "address",
              "name": "nonce",
              "type": "address"
            }
          ],
          "internalType": "struct MuonClientBase.SchnorrSign",
          "name": "signature",
          "type": "tuple"
        },
        {
          "components": [
            {
              "internalType": "uint256",
              "name": "x",
              "type": "uint256"
            },
            {
              "internalType": "uint8",
              "name": "parity",
              "type": "uint8"
            }
          ],
          "internalType": "struct MuonClientBase.PublicKey",
          "name": "pubKey",
          "type": "tuple"
        }
      ],
      "name": "muonVerify",
      "outputs": [
        {
          "internalType": "bool",
          "name": "",
          "type": "bool"
        }
      ],
      "stateMutability": "nonpayable",
      "type": "function"
    },
    {
      "inputs": [],
      "name": "nodeManager",
      "outputs": [
        {
          "internalType": "contract IMuonNodeManager",
          "name": "",
          "type": "address"
        }
      ],
      "stateMutability": "view",
      "type": "function"
    },
    {
      "inputs": [],
      "name": "notPaidRewards",
      "outputs": [
        {
          "internalType": "uint256",
          "name": "",
          "type": "uint256"
        }
      ],
      "stateMutability": "view",
      "type": "function"
    },
    {
      "inputs": [
        {
          "internalType": "address",
          "name": "",
          "type": "address"
        },
        {
          "internalType": "address",
          "name": "",
          "type": "address"
        },
        {
          "internalType": "uint256",
          "name": "",
          "type": "uint256"
        },
        {
          "internalType": "bytes",
          "name": "",
          "type": "bytes"
        }
      ],
      "name": "onERC721Received",
      "outputs": [
        {
          "internalType": "bytes4",
          "name": "",
          "type": "bytes4"
        }
      ],
      "stateMutability": "pure",
      "type": "function"
    },
    {
      "inputs": [],
      "name": "periodFinish",
      "outputs": [
        {
          "internalType": "uint256",
          "name": "",
          "type": "uint256"
        }
      ],
      "stateMutability": "view",
      "type": "function"
    },
    {
      "inputs": [
        {
          "internalType": "bytes32",
          "name": "role",
          "type": "bytes32"
        },
        {
          "internalType": "address",
          "name": "account",
          "type": "address"
        }
      ],
      "name": "renounceRole",
      "outputs": [],
      "stateMutability": "nonpayable",
      "type": "function"
    },
    {
      "inputs": [],
      "name": "requestExit",
      "outputs": [],
      "stateMutability": "nonpayable",
      "type": "function"
    },
    {
      "inputs": [
        {
          "internalType": "bytes32",
          "name": "role",
          "type": "bytes32"
        },
        {
          "internalType": "address",
          "name": "account",
          "type": "address"
        }
      ],
      "name": "revokeRole",
      "outputs": [],
      "stateMutability": "nonpayable",
      "type": "function"
    },
    {
      "inputs": [],
      "name": "rewardPerToken",
      "outputs": [
        {
          "internalType": "uint256",
          "name": "",
          "type": "uint256"
        }
      ],
      "stateMutability": "view",
      "type": "function"
    },
    {
      "inputs": [],
      "name": "rewardPerTokenStored",
      "outputs": [
        {
          "internalType": "uint256",
          "name": "",
          "type": "uint256"
        }
      ],
      "stateMutability": "view",
      "type": "function"
    },
    {
      "inputs": [],
      "name": "rewardPeriod",
      "outputs": [
        {
          "internalType": "uint256",
          "name": "",
          "type": "uint256"
        }
      ],
      "stateMutability": "view",
      "type": "function"
    },
    {
      "inputs": [],
      "name": "rewardRate",
      "outputs": [
        {
          "internalType": "uint256",
          "name": "",
          "type": "uint256"
        }
      ],
      "stateMutability": "view",
      "type": "function"
    },
    {
      "inputs": [
        {
          "internalType": "uint256",
          "name": "_exitPendingPeriod",
          "type": "uint256"
        }
      ],
      "name": "setExitPendingPeriod",
      "outputs": [],
      "stateMutability": "nonpayable",
      "type": "function"
    },
    {
      "inputs": [
        {
          "internalType": "string",
          "name": "functionName",
          "type": "string"
        },
        {
          "internalType": "bool",
          "name": "pauseStatus",
          "type": "bool"
        }
      ],
      "name": "setFunctionPauseStatus",
      "outputs": [],
      "stateMutability": "nonpayable",
      "type": "function"
    },
    {
      "inputs": [
        {
          "internalType": "uint256",
          "name": "_minStakeAmount",
          "type": "uint256"
        }
      ],
      "name": "setMinStakeAmount",
      "outputs": [],
      "stateMutability": "nonpayable",
      "type": "function"
    },
    {
      "inputs": [
        {
          "internalType": "uint256",
          "name": "_muonAppId",
          "type": "uint256"
        }
      ],
      "name": "setMuonAppId",
      "outputs": [],
      "stateMutability": "nonpayable",
      "type": "function"
    },
    {
      "inputs": [
        {
          "internalType": "address",
          "name": "stakerAddress",
          "type": "address"
        },
        {
          "internalType": "uint8",
          "name": "tier",
          "type": "uint8"
        }
      ],
      "name": "setMuonNodeTier",
      "outputs": [],
      "stateMutability": "nonpayable",
      "type": "function"
    },
    {
      "inputs": [
        {
          "components": [
            {
              "internalType": "uint256",
              "name": "x",
              "type": "uint256"
            },
            {
              "internalType": "uint8",
              "name": "parity",
              "type": "uint8"
            }
          ],
          "internalType": "struct MuonClientBase.PublicKey",
          "name": "_muonPublicKey",
          "type": "tuple"
        }
      ],
      "name": "setMuonPublicKey",
      "outputs": [],
      "stateMutability": "nonpayable",
      "type": "function"
    },
    {
      "inputs": [
        {
          "internalType": "uint256",
          "name": "period",
          "type": "uint256"
        }
      ],
      "name": "setRewardPeriod",
      "outputs": [],
      "stateMutability": "nonpayable",
      "type": "function"
    },
    {
      "inputs": [
        {
          "internalType": "address",
          "name": "stakerAddress",
          "type": "address"
        },
        {
          "internalType": "bool",
          "name": "lockStatus",
          "type": "bool"
        }
      ],
      "name": "setStakeLockStatus",
      "outputs": [],
      "stateMutability": "nonpayable",
      "type": "function"
    },
    {
      "inputs": [
        {
          "internalType": "uint8",
          "name": "tier",
          "type": "uint8"
        },
        {
          "internalType": "uint256",
          "name": "maxStakeAmount",
          "type": "uint256"
        }
      ],
      "name": "setTierMaxStakeAmount",
      "outputs": [],
      "stateMutability": "nonpayable",
      "type": "function"
    },
    {
      "inputs": [
        {
          "internalType": "address",
          "name": "_verifierAddress",
          "type": "address"
        }
      ],
      "name": "setVerifier",
      "outputs": [],
      "stateMutability": "nonpayable",
      "type": "function"
    },
    {
      "inputs": [
        {
          "internalType": "uint256",
          "name": "",
          "type": "uint256"
        }
      ],
      "name": "stakingTokens",
      "outputs": [
        {
          "internalType": "address",
          "name": "",
          "type": "address"
        }
      ],
      "stateMutability": "view",
      "type": "function"
    },
    {
      "inputs": [
        {
          "internalType": "address",
          "name": "",
          "type": "address"
        }
      ],
      "name": "stakingTokensMultiplier",
      "outputs": [
        {
          "internalType": "uint256",
          "name": "",
          "type": "uint256"
        }
      ],
      "stateMutability": "view",
      "type": "function"
    },
    {
      "inputs": [
        {
          "internalType": "bytes4",
          "name": "interfaceId",
          "type": "bytes4"
        }
      ],
      "name": "supportsInterface",
      "outputs": [
        {
          "internalType": "bool",
          "name": "",
          "type": "bool"
        }
      ],
      "stateMutability": "view",
      "type": "function"
    },
    {
      "inputs": [
        {
          "internalType": "uint8",
          "name": "",
          "type": "uint8"
        }
      ],
      "name": "tiersMaxStakeAmount",
      "outputs": [
        {
          "internalType": "uint256",
          "name": "",
          "type": "uint256"
        }
      ],
      "stateMutability": "view",
      "type": "function"
    },
    {
      "inputs": [],
      "name": "totalStaked",
      "outputs": [
        {
          "internalType": "uint256",
          "name": "",
          "type": "uint256"
        }
      ],
      "stateMutability": "view",
      "type": "function"
    },
    {
      "inputs": [],
      "name": "updateStaking",
      "outputs": [],
      "stateMutability": "nonpayable",
      "type": "function"
    },
    {
      "inputs": [
        {
          "internalType": "address[]",
          "name": "tokens",
          "type": "address[]"
        },
        {
          "internalType": "uint256[]",
          "name": "multipliers",
          "type": "uint256[]"
        }
      ],
      "name": "updateStakingTokens",
      "outputs": [],
      "stateMutability": "nonpayable",
      "type": "function"
    },
    {
      "inputs": [
        {
          "internalType": "address",
          "name": "",
          "type": "address"
        }
      ],
      "name": "users",
      "outputs": [
        {
          "internalType": "uint256",
          "name": "balance",
          "type": "uint256"
        },
        {
          "internalType": "uint256",
          "name": "paidReward",
          "type": "uint256"
        },
        {
          "internalType": "uint256",
          "name": "paidRewardPerToken",
          "type": "uint256"
        },
        {
          "internalType": "uint256",
          "name": "pendingRewards",
          "type": "uint256"
        },
        {
          "internalType": "uint256",
          "name": "tokenId",
          "type": "uint256"
        }
      ],
      "stateMutability": "view",
      "type": "function"
    },
    {
      "inputs": [
        {
          "internalType": "uint256",
          "name": "signingPubKeyX",
          "type": "uint256"
        }
      ],
      "name": "validatePubKey",
      "outputs": [],
      "stateMutability": "pure",
      "type": "function"
    },
    {
      "inputs": [
        {
          "internalType": "uint256",
          "name": "tokenId",
          "type": "uint256"
        }
      ],
      "name": "valueOfBondedToken",
      "outputs": [
        {
          "internalType": "uint256",
          "name": "amount",
          "type": "uint256"
        }
      ],
      "stateMutability": "view",
      "type": "function"
    },
    {
      "inputs": [],
      "name": "verifier",
      "outputs": [
        {
          "internalType": "contract SchnorrSECP256K1VerifierV2",
          "name": "",
          "type": "address"
        }
      ],
      "stateMutability": "view",
      "type": "function"
    },
    {
      "inputs": [
        {
          "internalType": "uint256",
          "name": "signingPubKeyX",
          "type": "uint256"
        },
        {
          "internalType": "uint8",
          "name": "pubKeyYParity",
          "type": "uint8"
        },
        {
          "internalType": "uint256",
          "name": "signature",
          "type": "uint256"
        },
        {
          "internalType": "uint256",
          "name": "msgHash",
          "type": "uint256"
        },
        {
          "internalType": "address",
          "name": "nonceTimesGeneratorAddress",
          "type": "address"
        }
      ],
      "name": "verifySignature",
      "outputs": [
        {
          "internalType": "bool",
          "name": "",
          "type": "bool"
        }
      ],
      "stateMutability": "pure",
      "type": "function"
    },
    {
      "inputs": [],
      "name": "withdraw",
      "outputs": [],
      "stateMutability": "nonpayable",
      "type": "function"
    }
  ],
  "bytecode": "0x608080604052346100165761508e908161001c8239f35b600080fdfe6102e0604052600436101561001357600080fd5b60006102805260003560e01c80628cc26214613cc857806301ffc9a714613c72578063150b7a0214613c1c5780631b604020146135ab5780631e82c1f114613573578063248a9ca3146135405780632819a630146134b657806328f42eaa146131eb5780632b179feb1461317e5780632b7ac3f3146131525780632f2ff15d1461308a57806330eec24314613069578063344e5e341461302757806336568abe14612f9557806336a8e09714612f535780633ccfd60b14612cc95780634729777b14612b52578063492aceb914612b265780635437988d14612ab557806359974e38146129d2578063638e7ffb146125c057806364a19a031461256f57806368f3547f146121085780636ef6863c14611bf45780637314802414611b935780637669c2bb14611abf5780637b0a47ee14611a9e5780637de74b0e146119475780637f8e3b4e146117d557806380faa57d146117b7578063817b1cd2146117965780638224604a14611762578063885ee3b91461129d57806388e817201461127c5780638efb3bb21461124857806391d14854146111f757806392417dc7146111b45780639752dd04146110ba57806397db1fa61461109c5780639bb5cd3f14611070578063a217fddf14611051578063a87430ba14610fe7578063af663e9b14610fbc578063b3f74d8914610f9b578063bf7554f514610ce5578063c8f33c9114610cc4578063cbcc6f3a14610c86578063cd3daf9d14610c60578063d09bda7c14610a73578063d547741f14610a30578063df136d6514610a0f578063e36a4ec7146109e3578063e493ef8c146109b3578063e8884f2b14610975578063e88dc5b714610954578063e9c2651814610916578063ea65c4331461079f578063eb4af0451461074e578063ebe2b12b1461072d578063f0e1569a14610394578063f188768414610370578063ff27e64a1461031f5763ff51dff2146102d757600080fd5b346103185760a036600319011261031857602061030e6102f5613e06565b6102fd613d17565b906064359060443590600435614e7e565b6040519015158152f35b6102805180fd5b34610318576020366003190112610318577fac325a720a38ca06e6f48c2248283e289d403cecc53626c02cca58b2ce8c83f7602060043561035e613f44565b80609755604051908152a16102805180f35b34610318576102805180600319360112610391576020609d54604051908152f35b80fd5b34610318576040366003190112610318576001600160401b03600435818111610318576103c5903690600401613e5c565b91602435908111610318576103de903690600401613e5c565b9190926103e9613f44565b6103f4838214614570565b610280515b818110610407576102805180f35b61041a6104158284866145cb565b6145db565b6104258286886145cb565b61028080516001600160a01b038416905260a76020525160409020549035919061ffff16156106455781156104b5575b907f48db63d71f060bb242b868b5434667c1031856fc9755741cdfaca20305a51d8e60206104b0949360018060a01b038116610280515260a982528360406102805120555b6040519384526001600160a01b031692a26145bc565b6103f9565b61028080516001600160a01b038316905260a760205251604081205461ffff908116600019019190821161062d575060a85480600019810111610613576105209161050661053f9260001901613e16565b905460039190911b1c6001600160a01b0316928391613e16565b90919082549060031b9160018060a01b03809116831b921b1916179055565b60018060a01b038216610280515260a7602052610280519061ffff60408320541691526102805190604082209061ffff1982541617905560a8549081156105fb575060206104b09493927f48db63d71f060bb242b868b5434667c1031856fc9755741cdfaca20305a51d8e92600019016105b881613e16565b81549060018060a01b039060031b1b1916905560a85560018060a01b038116610280515260a782526040610280512061ffff198154169055929394505050610455565b634e487b7160e01b9052603160045261028051602490fd5b634e487b7160e01b61028051526011600452602461028051fd5b634e487b7160e01b9052601160045261028051602490fd5b919080156106f25760a85492680100000000000000008410156106d85760208161069d7f48db63d71f060bb242b868b5434667c1031856fc9755741cdfaca20305a51d8e936105208860016104b09a0160a855613e16565b60018060a01b038116610280515260a9825261028051846040822055604061ffff60a854169160a78552209061ffff1982541617905561049a565b634e487b7160e01b61028051526041600452602461028051fd5b60405162461bcd60e51b815260206004820152601360248201527224b73b30b634b21036bab63a34b83634b2b91760691b6044820152606490fd5b34610318576102805180600319360112610391576020609e54604051908152f35b34610318576020366003190112610318577f8448c02797b448f4946bc25b3bf925e5556d1df822c944da701c54bab8a3162f602060043561078d613f44565b80609d55604051908152a16102805180f35b34610318576020366003190112610318576107b8613ceb565b6107c0613f44565b6107c8614cbf565b60a1556107d3614d97565b60a0556001600160a01b039080821690816108e7575b508160a3541690604051916362cf549360e11b83528160048401528260248161028051935afa9182156108b65761028051926108c4575b5080610280515260a260205261083f6040610280512054609a546145ef565b609a55610280515260a26020526001600160401b03610280519283604081205560a3541691511691813b15610391575060405191631b48f6a960e11b83526004830152816024816102805180945af180156108b6576108a0575b6102805180f35b6108a990613d5a565b6102805180156108995780fd5b6040513d61028051823e3d90fd5b6108e091923d8091833e6108d88183613dbe565b81019061486e565b9083610820565b6108f090614d18565b81610280515260a260205260406102805120906003820155600260a154910155826107e9565b346103185761028051806003193601126103915760206040517f3b5d4cc60d3ec3516ee8ae083bd60934f6eb2a6c54b1229985c41bfb092b26038152f35b3461031857610280518060031936011261039157602060ad54604051908152f35b346103185761028051806003193601126103915760206040517fc002a6b5f9f56101ba6339b1b95d171fadf6e41e005b91c80d686aef7516e7598152f35b3461031857610280518060031936011261039157602060405170014551231950b75fc4402da1732fc9bebe198152f35b346103185761028051806003193601126103915760a6546040516001600160a01b039091168152602090f35b3461031857610280518060031936011261039157602060a154604051908152f35b3461031857604036600319011261031857610899600435610a4f613d01565b908061028051526065602052610a6e6001604061028051200154614273565b6143a9565b3461031857610280518060031936011261039157610a8f614cbf565b60a155610a9a614d97565b60a05533610c32575b60a3546040516362cf549360e11b8152336004820152610280519091829060249082906001600160a01b03165afa9081156108b6576102805191610c19575b506001600160401b03815116151580610c0c575b15610bcf5733610280515260a260205260ff60a0610b286004604061028051200154610b2381151561463e565b614afd565b92610b37609d54851015614ab1565b015116610280515260aa602052610280516040812054808311610bc7575b5033905260a26020526040610280512054818103610b74576102805180f35b610b8090609a546145ef565b609a5533610280515260a2602052806040610280512055610ba381609a54613f37565b609a5560405190815260008051602061503983398151915260203392a28080610899565b915082610b55565b60405162461bcd60e51b815260206004820152601560248201527427379030b1ba34bb32903737b232903337bab7321760591b6044820152606490fd5b5060808101511515610af6565b610c2c913d8091833e6108d88183613dbe565b81610ae2565b610c3b33614d18565b33610280515260a260205260406102805120906003820155600260a154910155610aa3565b34610318576102805180600319360112610391576020610c7e614cbf565b604051908152f35b34610318576020366003190112610318576001600160a01b03610ca7613ceb565b16610280515260a960205260206040610280512054604051908152f35b3461031857610280518060031936011261039157602060a054604051908152f35b3461031857604036600319011261031857610cfe613ceb565b610d06613e06565b90610d0f613f44565b610d17614cbf565b60a155610d22614d97565b60a0556001600160a01b03818116928315159290919083610f6d575b8160a3541693604051936362cf549360e11b958686528760048701526102805186602481845afa9586156108b6576102805196610f52575b506001600160401b038096511691813b156103185760ff90604051936313f5109160e01b85526004850152166024830152816044816102805180945af180156108b657610f3c575b50610dc7614cbf565b60a155610dd2614d97565b60a055610f0d575b5060a354166040519283528360048401528260248161028051935afa9182156108b6576102805192610ef2575b50815116151580610ee5575b15610bcf5781610280515260a260205260ff60a0610e406004604061028051200154610b2381151561463e565b92610e4f609d54851015614ab1565b015116610280515260aa60205281610280516040812054808411610edd575b505260a26020526040610280512054818103610e8b576102805180f35b60008051602061503983398151915291610ea9602092609a546145ef565b609a5583610280515260a28252806040610280512055610ecb81609a54613f37565b609a55604051908152a2808080610899565b925084610e6e565b5060808101511515610e13565b610f0691923d8091833e6108d88183613dbe565b9083610e07565b610f1690614d18565b84610280515260a260205260406102805120906003820155600260a15491015584610dda565b610f4590613d5a565b610280518015610dbe5780fd5b610f6691963d8091833e6108d88183613dbe565b9488610d76565b610f7681614d18565b85610280515260a260205260406102805120906003820155600260a154910155610d3e565b34610318576102805180600319360112610391576020609754604051908152f35b3461031857610280518060031936011261039157604060985460ff6099541682519182526020820152f35b34610318576020366003190112610318576001600160a01b03611008613ceb565b16610280515260a260205260a060406102805120805490600181015490600281015460046003830154920154926040519485526020850152604084015260608301526080820152f35b3461031857610280518060031936011261039157602090604051908152f35b346103185761028051806003193601126103915760a3546040516001600160a01b039091168152602090f35b34610318576020366003190112610318576020610c7e600435614afd565b34610318576040366003190112610318576040516110d781613d88565b600435815260243560ff811681036111af57602082019081526110f8613f44565b60ac548251906001600160a01b0316803b156103185760405191634112302560e11b835260048301528160248161028051935afa80156108b657611199575b7f0325c4c52a8cb00694e888ec43afb9b6806f812b6bc695a99979a7bc2f3546dd60408461117860ff868351609855511660ff1660ff196099541617609955565b6111918251809260ff6020809280518552015116910152565ba16102805180f35b6111a290613d5a565b6102805180156111375780fd5b600080fd5b34610318576020366003190112610318576001600160a01b036111d5613ceb565b16610280515260a5602052602060ff6040610280512054166040519015158152f35b3461031857604036600319011261031857611210613d01565b60043561028051526065602052604061028051209060018060a01b0316600052602052602060ff604060002054166040519015158152f35b346103185761028051806003193601126103915760206040516fa2a8918ca85bafe22016d0b997e4df5f600160ff1b038152f35b34610318576102805180600319360112610391576020609c54604051908152f35b346103185760208060031936011261031857600435906112f160ff6112e96040516112c781613d88565b60118152706d65726765426f6e646564546f6b656e7360781b85820152613f11565b5416156145fc565b60a6546040516331a9108f60e11b808252600482018590526024946001600160a01b039390929084169085818881855afa9081156108b657610280519161172d575b5084339116036116e95733610280515260a2855260046040610280512001549161135e83151561463e565b60405190815282600482015285818881855afa9081156108b65761028051916116b4575b50843091160361166557803b1561031857604051632142170760e11b8152610280805133600484015230602484015260448301869052905191929091839160649183915af180156108b65761164f575b508260a65416803b156103185760405163095ea7b360e01b815261028080516001600160a01b038416600484015260248301869052905191929091839160449183915af180156108b657611639575b508260a6541690813b15610318576040519263d1c2babb60e01b8452600484015285830152816044816102805180945af180156108b657611623575b50611466614cbf565b60a155611471614d97565b60a055336115f6575b60a3541691604051926362cf549360e11b845233600485015283828161028051935afa9283156108b65761028051936115db575b506001600160401b038351161515806115ce575b15611593575033610280515260a2815260ff60a06114ef6004604061028051200154610b2381151561463e565b936114fe609d54861015614ab1565b015116610280515260aa815261028051604081205480841161158b575b5033905260a2815260406102805120549082820361153a576102805180f35b61155560008051602061503983398151915292609a546145ef565b609a5533610280515260a2815282604061028051205561157783609a54613f37565b609a556040519283523392a2808080610899565b92508361151b565b9060156064926040519262461bcd60e51b845260048401528201527427379030b1ba34bb32903737b232903337bab7321760591b6044820152fd5b50608083015115156114c2565b6115ef91933d8091833e6108d88183613dbe565b91836114ae565b6115ff33614d18565b33610280515260a2835260406102805120906003820155600260a15491015561147a565b61162c90613d5a565b61028051801561145d5780fd5b61164290613d5a565b6102805180156114215780fd5b61165890613d5a565b6102805180156113d25780fd5b608485876040519162461bcd60e51b83526004830152808201527f5374616b696e6720636f6e7472616374206973206e6f7420746f6b656e206f776044820152633732b91760e11b6064820152fd5b90508581813d83116116e2575b6116cb8183613dbe565b81010312610318576116dc9061467e565b87611382565b503d6116c1565b60405162461bcd60e51b815260048101869052601a818801527f43616c6c6572206973206e6f7420746f6b656e206f776e65722e0000000000006044820152606490fd5b90508581813d831161175b575b6117448183613dbe565b81010312610318576117559061467e565b87611333565b503d61173a565b34610318576020366003190112610318576108996fa2a8918ca85bafe22016d0b997e4df5f600160ff1b0360043510614e39565b34610318576102805180600319360112610391576020609a54604051908152f35b34610318576102805180600319360112610391576020610c7e614d97565b34610318576102805180600319360112610391576117f1614cbf565b60a1556117fc614d97565b60a05533611919575b60a3546040516362cf549360e11b8152336004820152610280516001600160a01b03928290602490829086165afa9081156108b6576102805191611900575b5033610280515260a26020526118636040610280512054609a546145ef565b609a5533610280515260a26020526001600160401b03610280519283604081205560a3541691511691813b15610391575060405191631b48f6a960e11b83526004830152816024816102805180945af180156108b6576118ea575b61028051337fcc46cab6fe8ee1d4e3f4459cbdb1a495ebade5f5321a8e6442d81ed5a97522cc8280a280f35b6118f390613d5a565b6102805180156118be5780fd5b611913913d8091833e6108d88183613dbe565b82611844565b61192233614d18565b33610280515260a260205260406102805120906003820155600260a154910155611805565b34610318576040366003190112610318576004356001600160401b03811161031857611977903690600401613ea7565b7fab19a2bd62a02a020b354f8751c07e839e0349c96ca8a8115efda3fe858c3c576119a0613e4d565b916119a9613f44565b611a5a60405191805190611a4960ff6020958681818601966119cc81838a613eee565b60ab9082019081520301902054881580159992611a1c921690611a6e57896040516119f681613d88565b600f81526e20b63932b0b23c903830bab9b2b21760891b8a820152915b15151415614af5565b60405186818551611a2e81838a613eee565b810160ab8152030190209060ff801983541691151516179055565b604051928392839251928391613eee565b810103902092604051908152a26102805180f35b89604051611a7b81613d88565b601181527020b63932b0b23c903ab73830bab9b2b21760791b8a82015291611a13565b34610318576102805180600319360112610391576020609f54604051908152f35b346103185760e0366003190112610318576001600160401b0360043581811161031857611af0903690600401613d2d565b91606036604319011261031857604051906060820190811182821017611b7d5760405260443581526064356001600160a01b03811681036111af576020820152611b38613d17565b6040820152604060a3193601126111af5760405190611b5682613d88565b60a435825260c4359260ff841684036111af5760209461030e948685015260243591614da9565b634e487b7160e01b600052604160045260246000fd5b34610318576020366003190112610318576004356001600160401b0381116103185760ff611bde6020611bcb81943690600401613ea7565b8160405193828580945193849201613eee565b810160ab81520301902054166040519015158152f35b3461031857610100366003190112610318576004356001600160401b03811161031857611c25903690600401613e5c565b60c052610200526024356001600160401b03811161031857611c4b903690600401613e5c565b6102c0526101a0526044356001600160401b03811161031857611c72903690600401613e5c565b610160526101e0526064356001600160401b03811161031857611c99903690600401613e5c565b6101c052610240526084356001600160401b03811161031857611cc0903690600401613e5c565b610120526101805260a4356001600160401b03811161031857611ce7903690600401613e5c565b610220526101005260c4356001600160401b03811161031857611d0e903690600401613e5c565b60e052610140526001600160401b0360e4351161031857611d343660e435600401613e5c565b610260526080523360009081527fffdfc1249c027f9191656349feb0761381bb32c9f557e01f419fd08754bf5a1b602052604090205460ff1615611f6357610280516102a0525b60c0516102a0518181101561089957610415611da29160018060a01b0393610200516145cb565b168060a052610280515260a260205260406102805120611dcc6102a0516102c0516101a0516145cb565b358155611de36102a051610160516101e0516145cb565b356001820155611dfd6102a0516101c051610240516145cb565b356002820155611e176102a05161012051610180516145cb565b3560038201556004611e336102a05161022051610100516145cb565b35910155611e4d6104156102a05160e051610140516145cb565b610260516102a0511015611f49576080516102a05190601e19813603018260051b8201351215610318576001600160401b038260051b820135820135116103185760059190911b81013501803536036020909101136103185760405190602082527f677b7b1d6e8fc8652dea30387876519b7a4c60a28098c1b3e5a950d5c473d14160a0519280611f006102a05160051b60805190810135019460018060a01b0316946020830190602081359101614a90565b0390a3611f176102a0516102c0516101a0516145cb565b35604051908152600080516020615039833981519152602060a05192a2611f406102a0516145bc565b6102a052611d7b565b634e487b7160e01b61028051526032600452602461028051fd5b611f6c33614443565b604051906000611f7b83613da3565b60428352602083019060603683378351156120f2576030825383516001908110156120f257607860218601536041905b80821161209857505061205457604861202992612038926120509560405195869376020b1b1b2b9b9a1b7b73a3937b61d1030b1b1b7bab73a1604d1b6020860152612000815180926020603789019101613eee565b8401917001034b99036b4b9b9b4b733903937b6329607d1b603784015251809386840190613eee565b01036028810184520182613dbe565b60405162461bcd60e51b81529182916004830161437d565b0390fd5b606460405162461bcd60e51b815260206004820152602060248201527f537472696e67733a20686578206c656e67746820696e73756666696369656e746044820152fd5b9091600f811660108110156120f2576f181899199a1a9b1b9c1cb0b131b232b360811b901a6120c78488614432565b5360041c9180156120dc576000190190611fab565b634e487b7160e01b600052601160045260246000fd5b634e487b7160e01b600052603260045260246000fd5b346103185760c0366003190112610318576001600160401b0360443581811161031857612139903690600401613d2d565b9160603660631901126103185761217560ff6112e960405161215a81613d88565b600981526819d95d14995dd85c9960ba1b6020820152613f11565b600435156125385760a3546040516362cf549360e11b815233600482015261028051909291839060249082906001600160a01b03165afa80156108b6576121ca92610280519161251f575b50511615156149e6565b33610280515260a260205260406102805120604051906121e982613d6d565b80548252600181015490602083019182526004600282015491826040860152600381015460608601520154608084015260243510158061250c575b156124c757609754905161227660b460405180936020820195865288886040840137888201903360601b6040830152605482015260243560748201526004356094820152036094810184520182613dbe565b51902060ac546098546099546001600160a01b039283169260ff9091169160a43591821682036111af5760209360a4926040519687958694637fa8eff960e11b8652600486015260248501526064356044850152606484015260018060a01b031660848301525afa9081156108b657610280519161248d575b5015612453577f639e3e6d27db6fe61b9793cd613b6cc7616176d824447ff0118341d0530095fa9161237361236b612354846060670de0b6b3a764000061234a61243d985161234460408601516024356145ef565b9061441f565b0491015190613f37565b612362816004351115614a44565b600435906145ef565b609b54613f37565b609b5561238c61238233614d18565b6004351115614a44565b33610280515260a260205260016102805160408120906003820155016123b56004358254613f37565b905533610280515260a2602052602435600260406102805120015561242b60018060a01b0360a454166040519063a9059cbb60e01b602083015261242682612418600435336024840160209093929193604081019460018060a01b031681520152565b03601f198101845283613dbe565b6146b3565b60405193604085526040850191614a90565b9160043560208201528033930390a26102805180f35b60405162461bcd60e51b815260206004820152601260248201527124b73b30b634b21039b4b3b730ba3ab9329760711b6044820152606490fd5b90506020813d6020116124bf575b816124a860209383613dbe565b81010312610318576124b9906146a6565b846122ef565b3d915061249b565b60405162461bcd60e51b815260206004820152601b60248201527f496e76616c69642070616964526577617264506572546f6b656e2e00000000006044820152606490fd5b50612515614cbf565b6024351115612224565b612532913d8091833e6108d88183613dbe565b856121c0565b60405162461bcd60e51b815260206004820152600f60248201526e24b73b30b634b21030b6b7bab73a1760891b6044820152606490fd5b34610318576020366003190112610318577fd161d71d1dbf2a5ce97242284bbe4704afd25a33a3a4d94e1c92c16c26b7ac1160206004356125ae613f44565b80609c55604051908152a16102805180f35b3461031857610180366003190112610318576125da613ceb565b6125e2613d01565b9060403660631901126111af57604051906125fc82613d88565b606435825260843560ff811681036111af57602083015260a4356001600160a01b03811681036111af5761028051549360ff8560081c1615948580966129c5575b80156129ae575b61264d9061450d565b6102805160ff1982166001178155908661299d575b50549360ff808660081c161595868097612991575b801561297b575b6126879061450d565b61028051908760018419831617835561296a575b505460081c1615612911576127b69360ff936020936102805180526065855261028051604081203360005286528660406000205416156128c0575b507f3b5d4cc60d3ec3516ee8ae083bd60934f6eb2a6c54b1229985c41bfb092b260380610280515260658652610280516040812033600052875287604060002054161561286e575b50506bffffffffffffffffffffffff60a01b9260018060a01b03168360a454161760a45560018060a01b03168260a354161760a35560018060a01b03169060a654161760a65562093a8080609c55681b1ae4d6e2ef500000609d5560ad5561279e6fa2a8918ca85bafe22016d0b997e4df5f600160ff1b03825110614e39565b805160985501511660ff1660ff196099541617609955565b60443560975560c435609a5560e435609b5561010435609e5561012435609f556101443560a0556101643560a155612831575b6127f4576102805180f35b6102805161ff001981541690557f7f26b83ff96e1f2b6a682f133852f6798a09c465da95921460cefb3847402498602060405160018152a1610899565b6102805161ff001981541690557f7f26b83ff96e1f2b6a682f133852f6798a09c465da95921460cefb3847402498602060405160018152a16127e9565b81905260658652610280516040812033600052875260406000206001891982541617905533917f2f8788117e7eff1d82e926ec794901d17c78024a50270940304540a733656f0d339280a4898061271e565b8052606585526102805160408120336000528652604060002060018819825416179055339033907f2f8788117e7eff1d82e926ec794901d17c78024a50270940304540a733656f0d8180a4896126d6565b60405162461bcd60e51b815260206004820152602b60248201527f496e697469616c697a61626c653a20636f6e7472616374206973206e6f74206960448201526a6e697469616c697a696e6760a81b6064820152608490fd5b61ffff19166101011781558861269b565b50303b15801561267e575080821660011461267e565b50600182821610612677565b61ffff191661010117815586612662565b50303b158015612644575060ff8116600114612644565b50600160ff82161061263d565b34610318576020366003190112610318576004356129ee614cbf565b60a1556129f9614d97565b60a055612a0461412d565b609e54428111612a7e5750612a27612a1e609b5483613f37565b60ad5490614a24565b609f555b61028051609b554260a05560ad54612a438142613f37565b609e5560405191825260208201527f6ae8ee960d83517f7fa993ad7a0e16e33d9655a23ff41eefc62bdb289c7a8e5f60404292a26102805180f35b612a1e612aa4612a9e612a95612aad9442906145ef565b609f549061441f565b84613f37565b609b5490613f37565b609f55612a2b565b34610318576020366003190112610318577fd24015cc99cc1700cafca3042840a1d8ac1e3964fd2e0e37ea29c654056ee3276020612af1613ceb565b612af9613f44565b60ac80546001600160a01b0319166001600160a01b03929092169182179055604051908152a16102805180f35b346103185761028051806003193601126103915760a4546040516001600160a01b039091168152602090f35b3461031857604036600319011261031857612b6b613ceb565b612b73613e4d565b612b7b61412d565b60018060a01b03918260a3541692604051916362cf549360e11b835216928360048301528160248161028051935afa9182156108b657612bf46001600160401b037fa0d77f0941231cf2ea8bb308b373de9c6cb08f35fdffd66a9734a3f7295f44f5946020946102805191612cb05750511615156149e6565b83610280515260a58252612c726102805191612c5060ff604085205416821515945082600014612c805784604051612c2b81613d88565b600f81526e20b63932b0b23c903637b1b5b2b21760891b888201529115151415614af5565b85610280515260a58452604061028051209060ff801983541691151516179055565b604051908152a26102805180f35b84604051612c8d81613d88565b601181527020b63932b0b23c903ab73637b1b5b2b21760791b8882015291611a13565b612cc3913d8091833e6108d88183613dbe565b876121c0565b3461031857610280518060031936011261039157604051612ce981613d88565b60088152612d0d60ff6112e960209367776974686472617760c01b85820152613f11565b60a3546040516362cf549360e11b8152336004820152610280516001600160a01b0393928290602490829087165afa9081156108b6576102805191612f3a575b50612d636001600160401b0382511615156149e6565b6080810151159081612f1f575b5015612ecb5733610280515260a5815260ff604061028051205416612e945733610280515260a28152600460406102805120015491612db083151561463e565b33610280515260a28252604061028051205480612e6c575b50610280519081600460408220015560a6541690813b156103915750604051632142170760e11b8152610280805130600484015233602484015260448301869052905191929091839160649183915af180156108b657612e56575b507f7084f5476618d8e60b11ef0d7d3f06914655adb8793e28ff7f018d4c76d505d5906040519283523392a26102805180f35b612e5f90613d5a565b610280518015612e235780fd5b612e7890609a546145ef565b609a5533610280515260a2825261028051604081205583612dc8565b6064906040519062461bcd60e51b82526004820152601060248201526f29ba30b5b29034b9903637b1b5b2b21760811b6044820152fd5b6084906040519062461bcd60e51b82526004820152602760248201527f54686520657869742074696d6520686173206e6f74206265656e20726561636860448201526632b2103cb2ba1760c91b6064820152fd5b612f3291506101000151609c5490613f37565b421183612d70565b612f4d913d8091833e6108d88183613dbe565b83612d4d565b34610318576020366003190112610318576001600160a01b03612f74613ceb565b16610280515260a7602052602061ffff604061028051205416604051908152f35b3461031857604036600319011261031857612fae613d01565b336001600160a01b03821603612fca57610899906004356143a9565b60405162461bcd60e51b815260206004820152602f60248201527f416363657373436f6e74726f6c3a2063616e206f6e6c792072656e6f756e636560448201526e103937b632b9903337b91039b2b63360891b6064820152608490fd5b346103185760203660031901126103185760043560a85481101561031857613050602091613e16565b905460405160039290921b1c6001600160a01b03168152f35b34610318576102805180600319360112610391576020609b54604051908152f35b34610318576040366003190112610318576004356130a6613d01565b81610280515260656020526130c46001604061028051200154614273565b816102805152606560205261028051604081209160018060a01b0316918260005260205260ff60406000205416156130fd576102805180f35b8290526065602052610280519160408320826000526020526040600020600160ff198254161790557f2f8788117e7eff1d82e926ec794901d17c78024a50270940304540a733656f0d339380a4808080610899565b346103185761028051806003193601126103915760ac546040516001600160a01b039091168152602090f35b3461031857604036600319011261031857613197613df6565b7f59cb74cc8ac3a17d66f97e82ad5b943cc1e5eadea6fcdc87277a327e1075c772602060ff602435936131c8613f44565b169283610280515260aa8252806040610280512055604051908152a26102805180f35b3461031857606036600319011261031857613204613ceb565b6024356001600160401b03811161031857613223903690600401613d2d565b60405192919060443561323585613d88565b600b855261325c60ff6112e96020976a6164644d756f6e4e6f646560a81b89820152613f11565b33610280515260a2855260046040610280512001546134785761328b61328182614afd565b609d541115614ab1565b610280805133905260a28652516040812060040182905560a6546001600160a01b03929190831690813b156103915750604051632142170760e11b8152610280805133600484015230602484015260448301859052905191929091839160649183915af180156108b657613462575b50858260a65416916024604051809481936331a9108f60e11b835260048301525afa9081156108b657610280519161342d575b5081309116036133f0578060a3541693843b156103185760405180928192630ac067cf60e01b835216958660048301523360248301526080604483015281613379608482018789614a90565b600160648301526102805194859103925af180156108b6576133da575b50907f677b7b1d6e8fc8652dea30387876519b7a4c60a28098c1b3e5a950d5c473d141916133d06040519283928784523397840191614a90565b0390a36102805180f35b6133e390613d5a565b6102805180156133965780fd5b60405162461bcd60e51b81526004810186905260156024820152742737ba103932b1b2b4bb32b2103a34329027232a1760591b6044820152606490fd5b90508581813d831161345b575b6134448183613dbe565b81010312610318576134559061467e565b8661332d565b503d61343a565b61346b90613d5a565b6102805180156132fa5780fd5b60405162461bcd60e51b815260048101869052601660248201527520b63932b0b23c9039ba30b5b2b21030b71027232a1760511b6044820152606490fd5b34610318576020366003190112610318576134cf614cbf565b60a1556134da614d97565b60a0556134e5613f44565b609e5442106134fb5760043560ad556102805180f35b60405162461bcd60e51b815260206004820152601a60248201527f6f6c6420706572696f64206973207374696c6c206163746976650000000000006044820152606490fd5b34610318576020366003190112610318576004356102805152606560205260206001604061028051200154604051908152f35b346103185760203660031901126103185760ff61358e613df6565b16610280515260aa60205260206040610280512054604051908152f35b34610318576040366003190112610318576004356001600160401b03811161031857366023820112156103185780600401356135e681613ddf565b916135f46040519384613dbe565b81835260208301906024829360051b8201019036821161031857602401915b818310613bfc57505050602435906001600160401b03821161031857366023830112156103185781600401359061364982613ddf565b926136576040519485613dbe565b828452602084016024819460051b8301019136831161031857602401905b828210613bec575050506136b660ff6112e960405161369381613d88565b60118152703637b1b5aa37a137b73232b22a37b5b2b760791b6020820152613f11565b8351926136c581518514614570565b33610280515260a26020526004604061028051200154936136e785151561463e565b60a6546040516331a9108f60e11b81526004810187905290602090829060249082906001600160a01b03165afa9081156108b6576102805191613bb2575b50306001600160a01b0390911603613b5757610280515b81811061382b57505060a6546001600160a01b031693843b156103185760405163e002804560e01b81526004810191909152606060248201529451606486018190526102805186949360848601939290915b818110613809575050506020906003198584030160448601525191828152019190610280515b8181106137f057505050918180936102805194859103925af180156108b6576137e1575b50610a8f614cbf565b6137ea90613d5a565b806137d8565b82518452869450602093840193909201916001016137b4565b82516001600160a01b031685528896506020948501949092019160010161378e565b602460206001600160a01b03613841848b614692565b5116604051928380926370a0823160e01b82523060048301525afa80156108b6576102805190613b24575b602491506138cd6124186001600160a01b03613888868d614692565b5116612426613897878a614692565b51604080516323b872dd60e01b602080830191909152338a83019081523091810191909152918201929092529093849160600190565b60206001600160a01b036138e1858c614692565b5116604051938480926370a0823160e01b82523060048301525afa80156108b6576102805190613af0575b61391692506145ef565b6139208285614692565b5103613a79576001600160a01b036139388289614692565b5160a654911691906001600160a01b03166139538286614692565b5180158015613a0b575b156139a75760405163095ea7b360e01b60208201526001600160a01b03909216602483015260448201526139a29261399d91906124268260648101612418565b6145bc565b61373c565b60405162461bcd60e51b815260206004820152603660248201527f5361666545524332303a20617070726f76652066726f6d206e6f6e2d7a65726f60448201527520746f206e6f6e2d7a65726f20616c6c6f77616e636560501b6064820152608490fd5b50604051636eb1769f60e11b815230600482015260248101839052602081604481885afa9081156108b6576102805191613a47575b501561395d565b90506020813d602011613a71575b81613a6260209383613dbe565b8101031261031857518b613a40565b3d9150613a55565b60405162461bcd60e51b815260206004820152604360248201527f5468652064697363726570616e6379206265747765656e20746865207265636560448201527f6976656420616d6f756e7420616e642074686520636c61696d656420616d6f75606482015262373a1760e91b608482015260a490fd5b506020823d602011613b1c575b81613b0a60209383613dbe565b8101031261031857613916915161390c565b3d9150613afd565b506020813d602011613b4f575b81613b3e60209383613dbe565b81010312610318576024905161386c565b3d9150613b31565b60405162461bcd60e51b815260206004820152602d60248201527f5374616b696e6720636f6e7472616374206973206e6f7420746865206f776e6560448201526c391037b3103a34329027232a1760991b6064820152608490fd5b90506020813d602011613be4575b81613bcd60209383613dbe565b8101031261031857613bde9061467e565b87613725565b3d9150613bc0565b8135815260209182019101613675565b82356001600160a01b038116810361031857815260209283019201613613565b3461031857608036600319011261031857613c35613ceb565b50613c3e613d01565b506064356001600160401b03811161031857613c5e903690600401613d2d565b5050604051630a85bd0160e11b8152602090f35b346103185760203660031901126103185760043563ffffffff60e01b811680910361031857602090637965db0b60e01b8114908115613cb7575b506040519015158152f35b6301ffc9a760e01b14905082613cac565b346111af5760203660031901126111af576020610c7e613ce6613ceb565b614d18565b600435906001600160a01b03821682036111af57565b602435906001600160a01b03821682036111af57565b608435906001600160a01b03821682036111af57565b9181601f840112156111af578235916001600160401b0383116111af57602083818601950101116111af57565b6001600160401b038111611b7d57604052565b60a081019081106001600160401b03821117611b7d57604052565b604081019081106001600160401b03821117611b7d57604052565b608081019081106001600160401b03821117611b7d57604052565b90601f801991011681019081106001600160401b03821117611b7d57604052565b6001600160401b038111611b7d5760051b60200190565b6004359060ff821682036111af57565b6024359060ff821682036111af57565b60a8548110156120f25760a86000527fbee89403b5bf0e626c2f71adb366311c697013df53107181a963adc459ef4d990190600090565b6024359081151582036111af57565b9181601f840112156111af578235916001600160401b0383116111af576020808501948460051b0101116111af57565b6001600160401b038111611b7d57601f01601f191660200190565b81601f820112156111af57803590613ebe82613e8c565b92613ecc6040519485613dbe565b828452602083830101116111af57816000926020809301838601378301015290565b60005b838110613f015750506000910152565b8181015183820152602001613ef1565b6020613f2a918160405193828580945193849201613eee565b810160ab81520301902090565b919082018092116120dc57565b3360009081527f7620894f52c4c8b9ff4855f0f4219104fbab381287ac78a05435bb101262295c60209081526040808320549092907f3b5d4cc60d3ec3516ee8ae083bd60934f6eb2a6c54b1229985c41bfb092b26039060ff1615613fa95750505050565b613fb233614443565b845191613fbe83613da3565b6042835284830193606036863783511561411957603085538351906001918210156141195790607860218601536041915b8183116140ab5750505061406957612000938593614053936140446048946120509951988576020b1b1b2b9b9a1b7b73a3937b61d1030b1b1b7bab73a1604d1b8b978801528251928391603789019101613eee565b01036028810185520183613dbe565b5162461bcd60e51b81529182916004830161437d565b60648486519062461bcd60e51b825280600483015260248201527f537472696e67733a20686578206c656e67746820696e73756666696369656e746044820152fd5b909192600f81166010811015614105576f181899199a1a9b1b9c1cb0b131b232b360811b901a6140db8588614432565b5360041c9280156140f157600019019190613fef565b634e487b7160e01b82526011600452602482fd5b634e487b7160e01b83526032600452602483fd5b634e487b7160e01b81526032600452602490fd5b3360009081527ff1c99a771b466e6b1f45edb6579ff4d82b4f86cfc7e7c2bc192086bcff2b247760209081526040808320549092907fc002a6b5f9f56101ba6339b1b95d171fadf6e41e005b91c80d686aef7516e7599060ff16156141925750505050565b61419b33614443565b8451916141a783613da3565b6042835284830193606036863783511561411957603085538351906001918210156141195790607860218601536041915b81831161422d5750505061406957612000938593614053936140446048946120509951988576020b1b1b2b9b9a1b7b73a3937b61d1030b1b1b7bab73a1604d1b8b978801528251928391603789019101613eee565b909192600f81166010811015614105576f181899199a1a9b1b9c1cb0b131b232b360811b901a61425d8588614432565b5360041c9280156140f1576000190191906141d8565b600081815260209060658252604092838220338352835260ff84832054161561429c5750505050565b6142a533614443565b8451916142b183613da3565b6042835284830193606036863783511561411957603085538351906001918210156141195790607860218601536041915b8183116143375750505061406957612000938593614053936140446048946120509951988576020b1b1b2b9b9a1b7b73a3937b61d1030b1b1b7bab73a1604d1b8b978801528251928391603789019101613eee565b909192600f81166010811015614105576f181899199a1a9b1b9c1cb0b131b232b360811b901a6143678588614432565b5360041c9280156140f1576000190191906142e2565b6040916020825261439d8151809281602086015260208686019101613eee565b601f01601f1916010190565b906000918083526065602052604083209160018060a01b03169182845260205260ff6040842054166143da57505050565b8083526065602052604083208284526020526040832060ff1981541690557ff6391f5c32d9c69d2a47ea670b442974b53935d1edc7fd64eb21e047a839171b339380a4565b818102929181159184041417156120dc57565b9081518110156120f2570160200190565b60405190606082018281106001600160401b03821117611b7d57604052602a82526020820160403682378251156120f2576030905381516001908110156120f257607860218401536029905b80821161449f5750506120545790565b9091600f811660108110156144f8576f181899199a1a9b1b9c1cb0b131b232b360811b901a6144ce8486614432565b5360041c9180156144e357600019019061448f565b60246000634e487b7160e01b81526011600452fd5b60246000634e487b7160e01b81526032600452fd5b1561451457565b60405162461bcd60e51b815260206004820152602e60248201527f496e697469616c697a61626c653a20636f6e747261637420697320616c72656160448201526d191e481a5b9a5d1a585b1a5e995960921b6064820152608490fd5b1561457757565b60405162461bcd60e51b815260206004820152601760248201527f417272617973206c656e677468206d69736d617463682e0000000000000000006044820152606490fd5b60001981146120dc5760010190565b91908110156120f25760051b0190565b356001600160a01b03811681036111af5790565b919082039182116120dc57565b1561460357565b60405162461bcd60e51b8152602060048201526013602482015272233ab731ba34b7b71034b9903830bab9b2b21760691b6044820152606490fd5b1561464557565b60405162461bcd60e51b815260206004820152601160248201527027379039ba30b5b4b733903337bab7321760791b6044820152606490fd5b51906001600160a01b03821682036111af57565b80518210156120f25760209160051b010190565b519081151582036111af57565b60018060a01b0316906147306040516146cb81613d88565b6020938482527f5361666545524332303a206c6f772d6c6576656c2063616c6c206661696c6564858301526000808587829751910182855af13d156147c5573d9161471583613e8c565b926147236040519485613dbe565b83523d868885013e6147c9565b908151908382159283156147a3575b50505090501561474c5750565b6084906040519062461bcd60e51b82526004820152602a60248201527f5361666545524332303a204552433230206f7065726174696f6e20646964206e6044820152691bdd081cdd58d8d9595960b21b6064820152fd5b8480929394500103126103915750816147bc91016146a6565b8038838161473f565b6060915b9192901561482b57508151156147dd575090565b3b156147e65790565b60405162461bcd60e51b815260206004820152601d60248201527f416464726573733a2063616c6c20746f206e6f6e2d636f6e74726163740000006044820152606490fd5b82519091501561483e5750805190602001fd5b60405162461bcd60e51b8152908190612050906004830161437d565b51906001600160401b03821682036111af57565b60209081818403126111af5780516001600160401b03918282116111af5701916101409384848203126111af57604092835195860186811082821117611b7d5784526148b98561485a565b86526148c683860161467e565b838701526148d584860161467e565b8487015260608501518181116111af57850182601f820112156111af578051906148fe82613e8c565b9161490b87519384613dbe565b808352848682840101116111af5761492891868085019101613eee565b6060870152614939608086016146a6565b608087015260a085015160ff811681036111af5760a087015260c08501519081116111af57840181601f820112156111af5780519061498361497a83613ddf565b95519586613dbe565b818552838086019260051b8201019283116111af578301905b8282106149cf575050505060c083015260e081015160e08301526101008082015190830152610120809101519082015290565b8380916149db8461485a565b81520191019061499c565b156149ed57565b60405162461bcd60e51b815260206004820152600f60248201526e2737b232903737ba103337bab7321760891b6044820152606490fd5b8115614a2e570490565b634e487b7160e01b600052601260045260246000fd5b15614a4b57565b60405162461bcd60e51b815260206004820152601a60248201527f496e76616c6964207769746864726177616c20616d6f756e742e0000000000006044820152606490fd5b908060209392818452848401376000828201840152601f01601f1916010190565b15614ab857565b60405162461bcd60e51b815260206004820152601560248201527424b739bab33334b1b4b2b73a1039ba30b5b4b7339760591b6044820152606490fd5b1561483e5750565b60018060a01b038060a654169160408051916397a7473b60e01b83526044830190600484015281602484015260a854809152826064810195600096879360a885527fbee89403b5bf0e626c2f71adb366311c697013df53107181a963adc459ef4d9990855b818110614ca15750505082809103915afa918215614c97578492614bfa575b509290819381519280945b848610614b9c5750505050505090565b909192939495614bea614bf09183614bb38a613e16565b90549060031b1c16855260a9602052670de0b6b3a7640000614be387872054614bdc8c8b614692565b519061441f565b0490613f37565b966145bc565b9493929190614b8c565b9091503d8085833e614c0c8183613dbe565b8101906020908181840312614c8f578051906001600160401b038211614c9357019180601f84011215614c8f578251614c4481613ddf565b93614c5186519586613dbe565b818552838086019260051b820101928311614c8b578301905b828210614c7c57505050509038614b81565b81518152908301908301614c6a565b8780fd5b8580fd5b8680fd5b81513d86823e3d90fd5b82548a1684528a965088955060209093019260019283019201614b62565b609a5480614cce575060a15490565b60a154614ce8612a95614cdf614d97565b60a054906145ef565b670de0b6b3a7640000908181029181830414901517156120dc57614d1592614d0f91614a24565b90613f37565b90565b60018060a01b031660005260a2602052614d156040600020670de0b6b3a7640000614d8e604051614d4881613d6d565b61234484549182815260018601546020820152600286015490604081019182526080600460038901549860608401998a520154910152614d86614cbf565b9051906145ef565b04905190613f37565b609e54804210600014614d1557504290565b92614dd0919285519160ff602088015116815191604060018060a01b039101511693614e7e565b15614e31577f77e158c4de5b89cd65592962239c3cc6136696032ecc462ad1b04af14e8df53b92614e29614e11604051948594606086526060860191614a90565b91602084019060ff6020809280518552015116910152565b0390a1600190565b505050600090565b15614e4057565b60405162461bcd60e51b81526020600482015260166024820152755075626c69632d6b65792078203e3d2048414c465f5160501b6044820152606490fd5b9190614ea16fa2a8918ca85bafe22016d0b997e4df5f600160ff1b038410614e39565b70014551231950b75fc4402da1732fc9bebe199485831015614fe8576001600160a01b038181169690959087151580614fdf575b80614fd6575b80614fcd575b15614f8f576040519160208301936bffffffffffffffffffffffff199060601b16845260348301526034825260608201928284106001600160401b03851117611b7d57819084604052835190209587098103908082116120dc5760209660009660ff60c0948160809916158a14614f8757601b905b885216878601528160a08601520991015282805260015afa15614f7b57600051161490565b6040513d6000823e3d90fd5b601c90614f56565b60405162461bcd60e51b81526020600482015260166024820152751b9bc81e995c9bc81a5b9c1d5d1cc8185b1b1bddd95960521b6044820152606490fd5b50811515614ee1565b50841515614edb565b50851515614ed5565b60405162461bcd60e51b815260206004820152602260248201527f7369676e6174757265206d7573742062652072656475636564206d6f64756c6f604482015261205160f01b6064820152608490fdfe9e71bc8eea02a63969f509818f2dafb9254532904319f9dbda79b67bd34a5f3da2646970667358221220c71f45f8ecfcf39490bf2bf85bd5f71192319e861a60e222585112ca5b011f7c64736f6c63430008130033",
  "linkReferences": {},
  "deployedLinkReferences": {}
}